{
  "contractName": "DEX",
  "abi": [
    {
      "inputs": [
        {
          "internalType": "address",
          "name": "_tokenAAddress",
          "type": "address"
        },
        {
          "internalType": "address",
          "name": "_tokenBAddress",
          "type": "address"
        }
      ],
      "stateMutability": "nonpayable",
      "type": "constructor"
    },
    {
      "inputs": [],
      "name": "FEE",
      "outputs": [
        {
          "internalType": "uint256",
          "name": "",
          "type": "uint256"
        }
      ],
      "stateMutability": "view",
      "type": "function",
      "constant": true
    },
    {
      "inputs": [],
      "name": "FEE_DENOMINATOR",
      "outputs": [
        {
          "internalType": "uint256",
          "name": "",
          "type": "uint256"
        }
      ],
      "stateMutability": "view",
      "type": "function",
      "constant": true
    },
    {
      "inputs": [],
      "name": "tokenA",
      "outputs": [
        {
          "internalType": "contract IERC20",
          "name": "",
          "type": "address"
        }
      ],
      "stateMutability": "view",
      "type": "function",
      "constant": true
    },
    {
      "inputs": [],
      "name": "tokenB",
      "outputs": [
        {
          "internalType": "contract IERC20",
          "name": "",
          "type": "address"
        }
      ],
      "stateMutability": "view",
      "type": "function",
      "constant": true
    },
    {
      "inputs": [
        {
          "internalType": "address",
          "name": "",
          "type": "address"
        }
      ],
      "name": "tokenInfo",
      "outputs": [
        {
          "internalType": "uint256",
          "name": "reserve",
          "type": "uint256"
        },
        {
          "internalType": "bool",
          "name": "isListed",
          "type": "bool"
        }
      ],
      "stateMutability": "view",
      "type": "function",
      "constant": true
    },
    {
      "inputs": [
        {
          "internalType": "address",
          "name": "token",
          "type": "address"
        }
      ],
      "name": "addToken",
      "outputs": [],
      "stateMutability": "nonpayable",
      "type": "function"
    },
    {
      "inputs": [
        {
          "internalType": "address",
          "name": "token1",
          "type": "address"
        },
        {
          "internalType": "address",
          "name": "token2",
          "type": "address"
        },
        {
          "internalType": "uint256",
          "name": "amountA",
          "type": "uint256"
        }
      ],
      "name": "calculateLiquidityToAdd",
      "outputs": [
        {
          "internalType": "uint256",
          "name": "amountB",
          "type": "uint256"
        }
      ],
      "stateMutability": "view",
      "type": "function",
      "constant": true
    },
    {
      "inputs": [
        {
          "internalType": "address",
          "name": "token1",
          "type": "address"
        },
        {
          "internalType": "address",
          "name": "token2",
          "type": "address"
        },
        {
          "internalType": "uint256",
          "name": "amountA",
          "type": "uint256"
        },
        {
          "internalType": "uint256",
          "name": "amountB",
          "type": "uint256"
        }
      ],
      "name": "addLiquidity",
      "outputs": [],
      "stateMutability": "nonpayable",
      "type": "function"
    },
    {
      "inputs": [
        {
          "internalType": "uint256",
          "name": "amountIn",
          "type": "uint256"
        },
        {
          "internalType": "address",
          "name": "tokenIn",
          "type": "address"
        },
        {
          "internalType": "address",
          "name": "tokenOut",
          "type": "address"
        }
      ],
      "name": "getAmountOut",
      "outputs": [
        {
          "internalType": "uint256",
          "name": "amountOut",
          "type": "uint256"
        }
      ],
      "stateMutability": "view",
      "type": "function",
      "constant": true
    },
    {
      "inputs": [
        {
          "internalType": "address",
          "name": "tokenIn",
          "type": "address"
        },
        {
          "internalType": "address",
          "name": "tokenOut",
          "type": "address"
        },
        {
          "internalType": "uint256",
          "name": "amountIn",
          "type": "uint256"
        }
      ],
      "name": "swap",
      "outputs": [],
      "stateMutability": "nonpayable",
      "type": "function"
    },
    {
      "inputs": [
        {
          "internalType": "address",
          "name": "token",
          "type": "address"
        }
      ],
      "name": "getReserve",
      "outputs": [
        {
          "internalType": "uint256",
          "name": "",
          "type": "uint256"
        }
      ],
      "stateMutability": "view",
      "type": "function",
      "constant": true
    }
  ],
  "bytecode": "0x608060405234801562000010575f80fd5b50604051620016a5380380620016a5833981810160405281019062000036919062000122565b815f806101000a81548173ffffffffffffffffffffffffffffffffffffffff021916908373ffffffffffffffffffffffffffffffffffffffff1602179055508060015f6101000a81548173ffffffffffffffffffffffffffffffffffffffff021916908373ffffffffffffffffffffffffffffffffffffffff160217905550505062000167565b5f80fd5b5f73ffffffffffffffffffffffffffffffffffffffff82169050919050565b5f620000ec82620000c1565b9050919050565b620000fe81620000e0565b811462000109575f80fd5b50565b5f815190506200011c81620000f3565b92915050565b5f80604083850312156200013b576200013a620000bd565b5b5f6200014a858286016200010c565b92505060206200015d858286016200010c565b9150509250929050565b61153080620001755f395ff3fe608060405234801561000f575f80fd5b50600436106100a7575f3560e01c8063c9a396e91161006f578063c9a396e914610165578063cf6c62ea14610195578063d48bfca7146101b1578063d73792a9146101cd578063df791e50146101eb578063f5dab71114610207576100a7565b80630fc63d10146100ab5780635e1e6325146100c95780635f64b55b146100f95780637bd03db914610117578063c57981b514610147575b5f80fd5b6100b3610238565b6040516100c09190610e66565b60405180910390f35b6100e360048036038101906100de9190610ef1565b61025b565b6040516100f09190610f50565b60405180910390f35b6101016104aa565b60405161010e9190610e66565b60405180910390f35b610131600480360381019061012c9190610f69565b6104cf565b60405161013e9190610f50565b60405180910390f35b61014f6106dd565b60405161015c9190610f50565b60405180910390f35b61017f600480360381019061017a9190610fb9565b6106e2565b60405161018c9190610f50565b60405180910390f35b6101af60048036038101906101aa9190610fe4565b6107b6565b005b6101cb60048036038101906101c69190610fb9565b610a43565b005b6101d5610ac5565b6040516101e29190610f50565b60405180910390f35b61020560048036038101906102009190610f69565b610acb565b005b610221600480360381019061021c9190610fb9565b610dc0565b60405161022f929190611062565b60405180910390f35b5f8054906101000a900473ffffffffffffffffffffffffffffffffffffffff1681565b5f60025f8473ffffffffffffffffffffffffffffffffffffffff1673ffffffffffffffffffffffffffffffffffffffff1681526020019081526020015f206001015f9054906101000a900460ff1680156102fe575060025f8373ffffffffffffffffffffffffffffffffffffffff1673ffffffffffffffffffffffffffffffffffffffff1681526020019081526020015f206001015f9054906101000a900460ff165b61033d576040517f08c379a0000000000000000000000000000000000000000000000000000000008152600401610334906110e3565b60405180910390fd5b5f60025f8573ffffffffffffffffffffffffffffffffffffffff1673ffffffffffffffffffffffffffffffffffffffff1681526020019081526020015f205f015490505f60025f8573ffffffffffffffffffffffffffffffffffffffff1673ffffffffffffffffffffffffffffffffffffffff1681526020019081526020015f205f015490505f8611610405576040517f08c379a00000000000000000000000000000000000000000000000000000000081526004016103fc9061114b565b60405180910390fd5b5f8211801561041357505f81115b610452576040517f08c379a0000000000000000000000000000000000000000000000000000000008152600401610449906111b3565b60405180910390fd5b5f601e61271061046291906111fe565b8761046d9190611231565b9050806127108461047e9190611231565b6104889190611272565b82826104949190611231565b61049e91906112d2565b93505050509392505050565b60015f9054906101000a900473ffffffffffffffffffffffffffffffffffffffff1681565b5f60025f8573ffffffffffffffffffffffffffffffffffffffff1673ffffffffffffffffffffffffffffffffffffffff1681526020019081526020015f206001015f9054906101000a900460ff168015610572575060025f8473ffffffffffffffffffffffffffffffffffffffff1673ffffffffffffffffffffffffffffffffffffffff1681526020019081526020015f206001015f9054906101000a900460ff165b6105b1576040517f08c379a00000000000000000000000000000000000000000000000000000000081526004016105a8906110e3565b60405180910390fd5b5f60025f8673ffffffffffffffffffffffffffffffffffffffff1673ffffffffffffffffffffffffffffffffffffffff1681526020019081526020015f205f015490505f60025f8673ffffffffffffffffffffffffffffffffffffffff1673ffffffffffffffffffffffffffffffffffffffff1681526020019081526020015f205f015490505f8211610679576040517f08c379a00000000000000000000000000000000000000000000000000000000081526004016106709061134c565b60405180910390fd5b5f81116106bb576040517f08c379a00000000000000000000000000000000000000000000000000000000081526004016106b2906113b4565b60405180910390fd5b8184826106c89190611231565b6106d291906112d2565b925050509392505050565b601e81565b5f60025f8373ffffffffffffffffffffffffffffffffffffffff1673ffffffffffffffffffffffffffffffffffffffff1681526020019081526020015f206001015f9054906101000a900460ff1661076f576040517f08c379a0000000000000000000000000000000000000000000000000000000008152600401610766906110e3565b60405180910390fd5b60025f8373ffffffffffffffffffffffffffffffffffffffff1673ffffffffffffffffffffffffffffffffffffffff1681526020019081526020015f205f01549050919050565b60025f8573ffffffffffffffffffffffffffffffffffffffff1673ffffffffffffffffffffffffffffffffffffffff1681526020019081526020015f206001015f9054906101000a900460ff168015610858575060025f8473ffffffffffffffffffffffffffffffffffffffff1673ffffffffffffffffffffffffffffffffffffffff1681526020019081526020015f206001015f9054906101000a900460ff165b610897576040517f08c379a000000000000000000000000000000000000000000000000000000000815260040161088e906110e3565b60405180910390fd5b8373ffffffffffffffffffffffffffffffffffffffff166323b872dd3330856040518463ffffffff1660e01b81526004016108d4939291906113e1565b6020604051808303815f875af11580156108f0573d5f803e3d5ffd5b505050506040513d601f19601f820116820180604052508101906109149190611440565b508273ffffffffffffffffffffffffffffffffffffffff166323b872dd3330846040518463ffffffff1660e01b8152600401610952939291906113e1565b6020604051808303815f875af115801561096e573d5f803e3d5ffd5b505050506040513d601f19601f820116820180604052508101906109929190611440565b508160025f8673ffffffffffffffffffffffffffffffffffffffff1673ffffffffffffffffffffffffffffffffffffffff1681526020019081526020015f205f015f8282546109e19190611272565b925050819055508060025f8573ffffffffffffffffffffffffffffffffffffffff1673ffffffffffffffffffffffffffffffffffffffff1681526020019081526020015f205f015f828254610a369190611272565b9250508190555050505050565b60405180604001604052805f81526020016001151581525060025f8373ffffffffffffffffffffffffffffffffffffffff1673ffffffffffffffffffffffffffffffffffffffff1681526020019081526020015f205f820151815f01556020820151816001015f6101000a81548160ff02191690831515021790555090505050565b61271081565b60025f8473ffffffffffffffffffffffffffffffffffffffff1673ffffffffffffffffffffffffffffffffffffffff1681526020019081526020015f206001015f9054906101000a900460ff168015610b6d575060025f8373ffffffffffffffffffffffffffffffffffffffff1673ffffffffffffffffffffffffffffffffffffffff1681526020019081526020015f206001015f9054906101000a900460ff165b610bac576040517f08c379a0000000000000000000000000000000000000000000000000000000008152600401610ba3906114b5565b60405180910390fd5b5f60025f8573ffffffffffffffffffffffffffffffffffffffff1673ffffffffffffffffffffffffffffffffffffffff1681526020019081526020015f2090505f60025f8573ffffffffffffffffffffffffffffffffffffffff1673ffffffffffffffffffffffffffffffffffffffff1681526020019081526020015f2090505f825f015490505f825f015490505f612710601e612710610c4d91906111fe565b87610c589190611231565b610c6291906112d2565b90505f8184610c719190611272565b8383610c7d9190611231565b610c8791906112d2565b905086865f015f828254610c9b9190611272565b9250508190555080855f015f828254610cb491906111fe565b925050819055508873ffffffffffffffffffffffffffffffffffffffff166323b872dd33308a6040518463ffffffff1660e01b8152600401610cf8939291906113e1565b6020604051808303815f875af1158015610d14573d5f803e3d5ffd5b505050506040513d601f19601f82011682018060405250810190610d389190611440565b508773ffffffffffffffffffffffffffffffffffffffff1663a9059cbb33836040518363ffffffff1660e01b8152600401610d749291906114d3565b6020604051808303815f875af1158015610d90573d5f803e3d5ffd5b505050506040513d601f19601f82011682018060405250810190610db49190611440565b50505050505050505050565b6002602052805f5260405f205f91509050805f015490806001015f9054906101000a900460ff16905082565b5f73ffffffffffffffffffffffffffffffffffffffff82169050919050565b5f819050919050565b5f610e2e610e29610e2484610dec565b610e0b565b610dec565b9050919050565b5f610e3f82610e14565b9050919050565b5f610e5082610e35565b9050919050565b610e6081610e46565b82525050565b5f602082019050610e795f830184610e57565b92915050565b5f80fd5b5f819050919050565b610e9581610e83565b8114610e9f575f80fd5b50565b5f81359050610eb081610e8c565b92915050565b5f610ec082610dec565b9050919050565b610ed081610eb6565b8114610eda575f80fd5b50565b5f81359050610eeb81610ec7565b92915050565b5f805f60608486031215610f0857610f07610e7f565b5b5f610f1586828701610ea2565b9350506020610f2686828701610edd565b9250506040610f3786828701610edd565b9150509250925092565b610f4a81610e83565b82525050565b5f602082019050610f635f830184610f41565b92915050565b5f805f60608486031215610f8057610f7f610e7f565b5b5f610f8d86828701610edd565b9350506020610f9e86828701610edd565b9250506040610faf86828701610ea2565b9150509250925092565b5f60208284031215610fce57610fcd610e7f565b5b5f610fdb84828501610edd565b91505092915050565b5f805f8060808587031215610ffc57610ffb610e7f565b5b5f61100987828801610edd565b945050602061101a87828801610edd565b935050604061102b87828801610ea2565b925050606061103c87828801610ea2565b91505092959194509250565b5f8115159050919050565b61105c81611048565b82525050565b5f6040820190506110755f830185610f41565b6110826020830184611053565b9392505050565b5f82825260208201905092915050565b7f546f6b656e206e6f7420737570706f72746564000000000000000000000000005f82015250565b5f6110cd601383611089565b91506110d882611099565b602082019050919050565b5f6020820190508181035f8301526110fa816110c1565b9050919050565b7f496e76616c696420696e70757420616d6f756e740000000000000000000000005f82015250565b5f611135601483611089565b915061114082611101565b602082019050919050565b5f6020820190508181035f83015261116281611129565b9050919050565b7f496e73756666696369656e74206c6971756964697479000000000000000000005f82015250565b5f61119d601683611089565b91506111a882611169565b602082019050919050565b5f6020820190508181035f8301526111ca81611191565b9050919050565b7f4e487b71000000000000000000000000000000000000000000000000000000005f52601160045260245ffd5b5f61120882610e83565b915061121383610e83565b925082820390508181111561122b5761122a6111d1565b5b92915050565b5f61123b82610e83565b915061124683610e83565b925082820261125481610e83565b9150828204841483151761126b5761126a6111d1565b5b5092915050565b5f61127c82610e83565b915061128783610e83565b925082820190508082111561129f5761129e6111d1565b5b92915050565b7f4e487b71000000000000000000000000000000000000000000000000000000005f52601260045260245ffd5b5f6112dc82610e83565b91506112e783610e83565b9250826112f7576112f66112a5565b5b828204905092915050565b7f4e6f206c697175696469747920666f7220746f6b656e204100000000000000005f82015250565b5f611336601883611089565b915061134182611302565b602082019050919050565b5f6020820190508181035f8301526113638161132a565b9050919050565b7f4e6f206c697175696469747920666f7220746f6b656e204200000000000000005f82015250565b5f61139e601883611089565b91506113a98261136a565b602082019050919050565b5f6020820190508181035f8301526113cb81611392565b9050919050565b6113db81610eb6565b82525050565b5f6060820190506113f45f8301866113d2565b61140160208301856113d2565b61140e6040830184610f41565b949350505050565b61141f81611048565b8114611429575f80fd5b50565b5f8151905061143a81611416565b92915050565b5f6020828403121561145557611454610e7f565b5b5f6114628482850161142c565b91505092915050565b7f4f6e65206f7220626f746820746f6b656e73206e6f7420737570706f727465645f82015250565b5f61149f602083611089565b91506114aa8261146b565b602082019050919050565b5f6020820190508181035f8301526114cc81611493565b9050919050565b5f6040820190506114e65f8301856113d2565b6114f36020830184610f41565b939250505056fea26469706673582212205a81198cdca0cc67657ebde9d71aee0ea913cd26e37b20e209e953baeea1fbb264736f6c63430008150033",
  "immutableReferences": {},
  "source": "// SPDX-License-Identifier: MIT\r\npragma solidity ^0.8.0;\r\nimport \"@openzeppelin/contracts/token/ERC20/IERC20.sol\";\r\n\r\ncontract DEX {\r\n    IERC20 public tokenA;\r\n    IERC20 public tokenB;\r\n    struct TokenInfo {\r\n        uint256 reserve; // \r\n        bool isListed; // \r\n    }\r\n    mapping(address => TokenInfo) public tokenInfo;\r\n    uint public constant FEE_DENOMINATOR = 10000;\r\n    uint public constant FEE = 30; // 0.3%\r\n\r\n    constructor(address _tokenAAddress, address _tokenBAddress) {\r\n        tokenA = IERC20(_tokenAAddress);\r\n        tokenB = IERC20(_tokenBAddress);\r\n    }\r\n    function addToken(address token) public {\r\n        tokenInfo[token] = TokenInfo(0, true);\r\n    }\r\n    // Liquidity\r\n    function calculateLiquidityToAdd(\r\n        address token1,\r\n        address token2,\r\n        uint amountA\r\n    ) public view returns (uint amountB) {\r\n        require(\r\n            tokenInfo[token1].isListed && tokenInfo[token2].isListed,\r\n            \"Token not supported\"\r\n        );\r\n        uint reserveA = tokenInfo[token1].reserve;\r\n        uint reserveB = tokenInfo[token2].reserve;\r\n        require(reserveA > 0, \"No liquidity for token A\");\r\n        require(reserveB > 0, \"No liquidity for token B\");\r\n        amountB = (reserveB * amountA) / reserveA;\r\n    }\r\n\r\n    function addLiquidity(\r\n        address token1,\r\n        address token2,\r\n        uint256 amountA,\r\n        uint256 amountB\r\n    ) public {\r\n        require(\r\n            tokenInfo[token1].isListed && tokenInfo[token2].isListed,\r\n            \"Token not supported\"\r\n        );\r\n        IERC20(token1).transferFrom(msg.sender, address(this), amountA);\r\n        IERC20(token2).transferFrom(msg.sender, address(this), amountB);\r\n\r\n        tokenInfo[token1].reserve += amountA;\r\n        tokenInfo[token2].reserve += amountB;\r\n\r\n        // LP token\r\n    }\r\n    function getAmountOut(\r\n        uint amountIn,\r\n        address tokenIn,\r\n        address tokenOut\r\n    ) public view returns (uint amountOut) {\r\n        require(\r\n            tokenInfo[tokenIn].isListed && tokenInfo[tokenOut].isListed,\r\n            \"Token not supported\"\r\n        );\r\n\r\n        uint reserveIn = tokenInfo[tokenIn].reserve;\r\n        uint reserveOut = tokenInfo[tokenOut].reserve;\r\n\r\n        require(amountIn > 0, \"Invalid input amount\");\r\n        require(reserveIn > 0 && reserveOut > 0, \"Insufficient liquidity\");\r\n\r\n        // \r\n        uint amountInWithFee = amountIn * (FEE_DENOMINATOR - FEE);\r\n        amountOut =\r\n            (amountInWithFee * reserveOut) /\r\n            (reserveIn * FEE_DENOMINATOR + amountInWithFee);\r\n    }\r\n    // function removeLiquidity() {}\r\n    // swap\r\n    function swap(address tokenIn, address tokenOut, uint256 amountIn) public {\r\n        require(\r\n            tokenInfo[tokenIn].isListed && tokenInfo[tokenOut].isListed,\r\n            \"One or both tokens not supported\"\r\n        );\r\n\r\n        TokenInfo storage inInfo = tokenInfo[tokenIn];\r\n        TokenInfo storage outInfo = tokenInfo[tokenOut];\r\n\r\n        uint256 inBalance = inInfo.reserve;\r\n        uint256 outBalance = outInfo.reserve;\r\n\r\n        uint256 amountInWithFee = (amountIn * (FEE_DENOMINATOR - FEE)) /\r\n            FEE_DENOMINATOR;\r\n        uint256 amountOut = (amountInWithFee * outBalance) /\r\n            (inBalance + amountInWithFee);\r\n\r\n        inInfo.reserve += amountIn;\r\n        outInfo.reserve -= amountOut;\r\n\r\n        IERC20(tokenIn).transferFrom(msg.sender, address(this), amountIn);\r\n        IERC20(tokenOut).transfer(msg.sender, amountOut);\r\n    }\r\n    function getReserve(address token) public view returns (uint256) {\r\n        require(tokenInfo[token].isListed, \"Token not supported\");\r\n        return tokenInfo[token].reserve;\r\n    }\r\n}\r\n",
  "sourcePath": "D:\\Code\\simple_dex\\contracts\\Dex.sol",
  "compiler": {
    "name": "solc",
    "version": "0.8.21+commit.d9974bed.Emscripten.clang"
  },
  "schemaVersion": "3.4.16",
  "updatedAt": "2024-08-14T10:09:05.942Z",
  "networkType": "ethereum",
  "devdoc": {
    "kind": "dev",
    "methods": {},
    "version": 1
  },
  "userdoc": {
    "kind": "user",
    "methods": {},
    "version": 1
  }
}