{
  "contractName": "DEX",
  "abi": [
    {
      "inputs": [
        {
          "internalType": "address",
          "name": "_tokenAAddress",
          "type": "address"
        },
        {
          "internalType": "address",
          "name": "_tokenBAddress",
          "type": "address"
        },
        {
          "internalType": "address",
          "name": "_lpTokenAddress",
          "type": "address"
        }
      ],
      "stateMutability": "nonpayable",
      "type": "constructor"
    },
    {
      "inputs": [],
      "name": "FEE",
      "outputs": [
        {
          "internalType": "uint256",
          "name": "",
          "type": "uint256"
        }
      ],
      "stateMutability": "view",
      "type": "function",
      "constant": true
    },
    {
      "inputs": [],
      "name": "FEE_DENOMINATOR",
      "outputs": [
        {
          "internalType": "uint256",
          "name": "",
          "type": "uint256"
        }
      ],
      "stateMutability": "view",
      "type": "function",
      "constant": true
    },
    {
      "inputs": [],
      "name": "lpToken",
      "outputs": [
        {
          "internalType": "contract LPToken",
          "name": "",
          "type": "address"
        }
      ],
      "stateMutability": "view",
      "type": "function",
      "constant": true
    },
    {
      "inputs": [],
      "name": "tokenA",
      "outputs": [
        {
          "internalType": "contract IERC20",
          "name": "",
          "type": "address"
        }
      ],
      "stateMutability": "view",
      "type": "function",
      "constant": true
    },
    {
      "inputs": [],
      "name": "tokenB",
      "outputs": [
        {
          "internalType": "contract IERC20",
          "name": "",
          "type": "address"
        }
      ],
      "stateMutability": "view",
      "type": "function",
      "constant": true
    },
    {
      "inputs": [
        {
          "internalType": "address",
          "name": "",
          "type": "address"
        }
      ],
      "name": "tokenInfo",
      "outputs": [
        {
          "internalType": "uint256",
          "name": "reserve",
          "type": "uint256"
        },
        {
          "internalType": "bool",
          "name": "isListed",
          "type": "bool"
        }
      ],
      "stateMutability": "view",
      "type": "function",
      "constant": true
    },
    {
      "inputs": [
        {
          "internalType": "address",
          "name": "token",
          "type": "address"
        }
      ],
      "name": "addToken",
      "outputs": [],
      "stateMutability": "nonpayable",
      "type": "function"
    },
    {
      "inputs": [
        {
          "internalType": "address",
          "name": "token1",
          "type": "address"
        },
        {
          "internalType": "address",
          "name": "token2",
          "type": "address"
        },
        {
          "internalType": "uint256",
          "name": "amountA",
          "type": "uint256"
        },
        {
          "internalType": "uint256",
          "name": "amountB",
          "type": "uint256"
        }
      ],
      "name": "addLiquidity",
      "outputs": [],
      "stateMutability": "nonpayable",
      "type": "function"
    },
    {
      "inputs": [
        {
          "internalType": "address",
          "name": "token1",
          "type": "address"
        },
        {
          "internalType": "address",
          "name": "token2",
          "type": "address"
        },
        {
          "internalType": "uint256",
          "name": "lpTokenAmount",
          "type": "uint256"
        }
      ],
      "name": "removeLiquidity",
      "outputs": [],
      "stateMutability": "nonpayable",
      "type": "function"
    },
    {
      "inputs": [
        {
          "internalType": "address",
          "name": "token1",
          "type": "address"
        },
        {
          "internalType": "address",
          "name": "token2",
          "type": "address"
        },
        {
          "internalType": "uint256",
          "name": "amountA",
          "type": "uint256"
        }
      ],
      "name": "calculateLiquidityToAdd",
      "outputs": [
        {
          "internalType": "uint256",
          "name": "amountB",
          "type": "uint256"
        }
      ],
      "stateMutability": "view",
      "type": "function",
      "constant": true
    },
    {
      "inputs": [
        {
          "internalType": "address",
          "name": "token1",
          "type": "address"
        },
        {
          "internalType": "address",
          "name": "token2",
          "type": "address"
        }
      ],
      "name": "getReserves",
      "outputs": [
        {
          "internalType": "uint256",
          "name": "reserveA",
          "type": "uint256"
        },
        {
          "internalType": "uint256",
          "name": "reserveB",
          "type": "uint256"
        }
      ],
      "stateMutability": "view",
      "type": "function",
      "constant": true
    },
    {
      "inputs": [
        {
          "internalType": "address",
          "name": "tokenIn",
          "type": "address"
        },
        {
          "internalType": "address",
          "name": "tokenOut",
          "type": "address"
        },
        {
          "internalType": "uint256",
          "name": "amountIn",
          "type": "uint256"
        }
      ],
      "name": "swap",
      "outputs": [],
      "stateMutability": "nonpayable",
      "type": "function"
    },
    {
      "inputs": [
        {
          "internalType": "uint256",
          "name": "amountIn",
          "type": "uint256"
        },
        {
          "internalType": "address",
          "name": "tokenIn",
          "type": "address"
        },
        {
          "internalType": "address",
          "name": "tokenOut",
          "type": "address"
        }
      ],
      "name": "getAmountOut",
      "outputs": [
        {
          "internalType": "uint256",
          "name": "amountOut",
          "type": "uint256"
        }
      ],
      "stateMutability": "view",
      "type": "function",
      "constant": true
    }
  ],
  "bytecode": "0x608060405234801562000010575f80fd5b5060405162001fad38038062001fad833981810160405281019062000036919062000163565b825f806101000a81548173ffffffffffffffffffffffffffffffffffffffff021916908373ffffffffffffffffffffffffffffffffffffffff1602179055508160015f6101000a81548173ffffffffffffffffffffffffffffffffffffffff021916908373ffffffffffffffffffffffffffffffffffffffff1602179055508060025f6101000a81548173ffffffffffffffffffffffffffffffffffffffff021916908373ffffffffffffffffffffffffffffffffffffffff160217905550505050620001bc565b5f80fd5b5f73ffffffffffffffffffffffffffffffffffffffff82169050919050565b5f6200012d8262000102565b9050919050565b6200013f8162000121565b81146200014a575f80fd5b50565b5f815190506200015d8162000134565b92915050565b5f805f606084860312156200017d576200017c620000fe565b5b5f6200018c868287016200014d565b93505060206200019f868287016200014d565b9250506040620001b2868287016200014d565b9150509250925092565b611de380620001ca5f395ff3fe608060405234801561000f575f80fd5b50600436106100cd575f3560e01c8063cf6c62ea1161008a578063d73792a911610064578063d73792a914610212578063d752fab214610230578063df791e501461024c578063f5dab71114610268576100cd565b8063cf6c62ea146101a9578063d48bfca7146101c5578063d52bb6f4146101e1576100cd565b80630fc63d10146100d15780635e1e6325146100ef5780635f64b55b1461011f5780635fcbd2851461013d5780637bd03db91461015b578063c57981b51461018b575b5f80fd5b6100d9610299565b6040516100e691906115bb565b60405180910390f35b61010960048036038101906101049190611646565b6102bc565b60405161011691906116a5565b60405180910390f35b61012761050b565b60405161013491906115bb565b60405180910390f35b610145610530565b60405161015291906116de565b60405180910390f35b610175600480360381019061017091906116f7565b610555565b60405161018291906116a5565b60405180910390f35b610193610763565b6040516101a091906116a5565b60405180910390f35b6101c360048036038101906101be9190611747565b610768565b005b6101df60048036038101906101da91906117ab565b610a8e565b005b6101fb60048036038101906101f691906117d6565b610b10565b604051610209929190611814565b60405180910390f35b61021a610b9d565b60405161022791906116a5565b60405180910390f35b61024a600480360381019061024591906116f7565b610ba3565b005b610266600480360381019061026191906116f7565b610ffe565b005b610282600480360381019061027d91906117ab565b61130e565b604051610290929190611855565b60405180910390f35b5f8054906101000a900473ffffffffffffffffffffffffffffffffffffffff1681565b5f60035f8473ffffffffffffffffffffffffffffffffffffffff1673ffffffffffffffffffffffffffffffffffffffff1681526020019081526020015f206001015f9054906101000a900460ff16801561035f575060035f8373ffffffffffffffffffffffffffffffffffffffff1673ffffffffffffffffffffffffffffffffffffffff1681526020019081526020015f206001015f9054906101000a900460ff165b61039e576040517f08c379a0000000000000000000000000000000000000000000000000000000008152600401610395906118d6565b60405180910390fd5b5f60035f8573ffffffffffffffffffffffffffffffffffffffff1673ffffffffffffffffffffffffffffffffffffffff1681526020019081526020015f205f015490505f60035f8573ffffffffffffffffffffffffffffffffffffffff1673ffffffffffffffffffffffffffffffffffffffff1681526020019081526020015f205f015490505f8611610466576040517f08c379a000000000000000000000000000000000000000000000000000000000815260040161045d9061193e565b60405180910390fd5b5f8211801561047457505f81115b6104b3576040517f08c379a00000000000000000000000000000000000000000000000000000000081526004016104aa906119a6565b60405180910390fd5b5f601e6127106104c391906119f1565b876104ce9190611a24565b905080612710846104df9190611a24565b6104e99190611a65565b82826104f59190611a24565b6104ff9190611ac5565b93505050509392505050565b60015f9054906101000a900473ffffffffffffffffffffffffffffffffffffffff1681565b60025f9054906101000a900473ffffffffffffffffffffffffffffffffffffffff1681565b5f60035f8573ffffffffffffffffffffffffffffffffffffffff1673ffffffffffffffffffffffffffffffffffffffff1681526020019081526020015f206001015f9054906101000a900460ff1680156105f8575060035f8473ffffffffffffffffffffffffffffffffffffffff1673ffffffffffffffffffffffffffffffffffffffff1681526020019081526020015f206001015f9054906101000a900460ff165b610637576040517f08c379a000000000000000000000000000000000000000000000000000000000815260040161062e906118d6565b60405180910390fd5b5f60035f8673ffffffffffffffffffffffffffffffffffffffff1673ffffffffffffffffffffffffffffffffffffffff1681526020019081526020015f205f015490505f60035f8673ffffffffffffffffffffffffffffffffffffffff1673ffffffffffffffffffffffffffffffffffffffff1681526020019081526020015f205f015490505f82116106ff576040517f08c379a00000000000000000000000000000000000000000000000000000000081526004016106f690611b3f565b60405180910390fd5b5f8111610741576040517f08c379a000000000000000000000000000000000000000000000000000000000815260040161073890611ba7565b60405180910390fd5b81848261074e9190611a24565b6107589190611ac5565b925050509392505050565b601e81565b60035f8573ffffffffffffffffffffffffffffffffffffffff1673ffffffffffffffffffffffffffffffffffffffff1681526020019081526020015f206001015f9054906101000a900460ff16801561080a575060035f8473ffffffffffffffffffffffffffffffffffffffff1673ffffffffffffffffffffffffffffffffffffffff1681526020019081526020015f206001015f9054906101000a900460ff165b610849576040517f08c379a0000000000000000000000000000000000000000000000000000000008152600401610840906118d6565b60405180910390fd5b8373ffffffffffffffffffffffffffffffffffffffff166323b872dd3330856040518463ffffffff1660e01b815260040161088693929190611bd4565b6020604051808303815f875af11580156108a2573d5f803e3d5ffd5b505050506040513d601f19601f820116820180604052508101906108c69190611c33565b508273ffffffffffffffffffffffffffffffffffffffff166323b872dd3330846040518463ffffffff1660e01b815260040161090493929190611bd4565b6020604051808303815f875af1158015610920573d5f803e3d5ffd5b505050506040513d601f19601f820116820180604052508101906109449190611c33565b508160035f8673ffffffffffffffffffffffffffffffffffffffff1673ffffffffffffffffffffffffffffffffffffffff1681526020019081526020015f205f015f8282546109939190611a65565b925050819055508060035f8573ffffffffffffffffffffffffffffffffffffffff1673ffffffffffffffffffffffffffffffffffffffff1681526020019081526020015f205f015f8282546109e89190611a65565b925050819055505f6109fc8585858561133a565b905060025f9054906101000a900473ffffffffffffffffffffffffffffffffffffffff1673ffffffffffffffffffffffffffffffffffffffff166340c10f1933836040518363ffffffff1660e01b8152600401610a5a929190611c5e565b5f604051808303815f87803b158015610a71575f80fd5b505af1158015610a83573d5f803e3d5ffd5b505050505050505050565b60405180604001604052805f81526020016001151581525060035f8373ffffffffffffffffffffffffffffffffffffffff1673ffffffffffffffffffffffffffffffffffffffff1681526020019081526020015f205f820151815f01556020820151816001015f6101000a81548160ff02191690831515021790555090505050565b5f8060035f8573ffffffffffffffffffffffffffffffffffffffff1673ffffffffffffffffffffffffffffffffffffffff1681526020019081526020015f205f015460035f8573ffffffffffffffffffffffffffffffffffffffff1673ffffffffffffffffffffffffffffffffffffffff1681526020019081526020015f205f0154915091509250929050565b61271081565b8060025f9054906101000a900473ffffffffffffffffffffffffffffffffffffffff1673ffffffffffffffffffffffffffffffffffffffff166370a08231336040518263ffffffff1660e01b8152600401610bfe9190611c85565b602060405180830381865afa158015610c19573d5f803e3d5ffd5b505050506040513d601f19601f82011682018060405250810190610c3d9190611cb2565b1015610c7e576040517f08c379a0000000000000000000000000000000000000000000000000000000008152600401610c7590611d27565b60405180910390fd5b5f60025f9054906101000a900473ffffffffffffffffffffffffffffffffffffffff1673ffffffffffffffffffffffffffffffffffffffff166318160ddd6040518163ffffffff1660e01b8152600401602060405180830381865afa158015610ce9573d5f803e3d5ffd5b505050506040513d601f19601f82011682018060405250810190610d0d9190611cb2565b90505f60035f8673ffffffffffffffffffffffffffffffffffffffff1673ffffffffffffffffffffffffffffffffffffffff1681526020019081526020015f205f015490505f60035f8673ffffffffffffffffffffffffffffffffffffffff1673ffffffffffffffffffffffffffffffffffffffff1681526020019081526020015f205f015490505f838386610da39190611a24565b610dad9190611ac5565b90505f848387610dbd9190611a24565b610dc79190611ac5565b90508160035f8a73ffffffffffffffffffffffffffffffffffffffff1673ffffffffffffffffffffffffffffffffffffffff1681526020019081526020015f205f015f828254610e1791906119f1565b925050819055508060035f8973ffffffffffffffffffffffffffffffffffffffff1673ffffffffffffffffffffffffffffffffffffffff1681526020019081526020015f205f015f828254610e6c91906119f1565b925050819055508773ffffffffffffffffffffffffffffffffffffffff1663a9059cbb33846040518363ffffffff1660e01b8152600401610eae929190611c5e565b6020604051808303815f875af1158015610eca573d5f803e3d5ffd5b505050506040513d601f19601f82011682018060405250810190610eee9190611c33565b508673ffffffffffffffffffffffffffffffffffffffff1663a9059cbb33836040518363ffffffff1660e01b8152600401610f2a929190611c5e565b6020604051808303815f875af1158015610f46573d5f803e3d5ffd5b505050506040513d601f19601f82011682018060405250810190610f6a9190611c33565b5060025f9054906101000a900473ffffffffffffffffffffffffffffffffffffffff1673ffffffffffffffffffffffffffffffffffffffff16639dc29fac33886040518363ffffffff1660e01b8152600401610fc7929190611c5e565b5f604051808303815f87803b158015610fde575f80fd5b505af1158015610ff0573d5f803e3d5ffd5b505050505050505050505050565b60035f8473ffffffffffffffffffffffffffffffffffffffff1673ffffffffffffffffffffffffffffffffffffffff1681526020019081526020015f206001015f9054906101000a900460ff1680156110a0575060035f8373ffffffffffffffffffffffffffffffffffffffff1673ffffffffffffffffffffffffffffffffffffffff1681526020019081526020015f206001015f9054906101000a900460ff165b6110df576040517f08c379a00000000000000000000000000000000000000000000000000000000081526004016110d690611d8f565b60405180910390fd5b5f60035f8573ffffffffffffffffffffffffffffffffffffffff1673ffffffffffffffffffffffffffffffffffffffff1681526020019081526020015f2090505f60035f8573ffffffffffffffffffffffffffffffffffffffff1673ffffffffffffffffffffffffffffffffffffffff1681526020019081526020015f2090505f825f015490505f825f015490505f612710601e61271061118091906119f1565b8761118b9190611a24565b6111959190611ac5565b90505f81846111a49190611a65565b83836111b09190611a24565b6111ba9190611ac5565b90505f82886111c991906119f1565b905080836111d79190611a65565b875f015f8282546111e89190611a65565b9250508190555081865f015f82825461120191906119f1565b925050819055508973ffffffffffffffffffffffffffffffffffffffff166323b872dd33308b6040518463ffffffff1660e01b815260040161124593929190611bd4565b6020604051808303815f875af1158015611261573d5f803e3d5ffd5b505050506040513d601f19601f820116820180604052508101906112859190611c33565b508873ffffffffffffffffffffffffffffffffffffffff1663a9059cbb33846040518363ffffffff1660e01b81526004016112c1929190611c5e565b6020604051808303815f875af11580156112dd573d5f803e3d5ffd5b505050506040513d601f19601f820116820180604052508101906113019190611c33565b5050505050505050505050565b6003602052805f5260405f205f91509050805f015490806001015f9054906101000a900460ff16905082565b5f8060025f9054906101000a900473ffffffffffffffffffffffffffffffffffffffff1673ffffffffffffffffffffffffffffffffffffffff166318160ddd6040518163ffffffff1660e01b8152600401602060405180830381865afa1580156113a6573d5f803e3d5ffd5b505050506040513d601f19601f820116820180604052508101906113ca9190611cb2565b90505f60035f8873ffffffffffffffffffffffffffffffffffffffff1673ffffffffffffffffffffffffffffffffffffffff1681526020019081526020015f205f015490505f60035f8873ffffffffffffffffffffffffffffffffffffffff1673ffffffffffffffffffffffffffffffffffffffff1681526020019081526020015f205f015490505f83036114775761146d85876114689190611a24565b6114ca565b93505050506114c2565b5f8284886114859190611a24565b61148f9190611ac5565b90505f82858861149f9190611a24565b6114a99190611ac5565b90508082106114b857806114ba565b815b955050505050505b949350505050565b5f600382111561152f578190505f60016002846114e79190611ac5565b6114f19190611a65565b90505b8181101561152957809150600281828561150e9190611ac5565b6115189190611a65565b6115229190611ac5565b90506114f4565b5061153c565b5f821461153b57600190505b5b919050565b5f73ffffffffffffffffffffffffffffffffffffffff82169050919050565b5f819050919050565b5f61158361157e61157984611541565b611560565b611541565b9050919050565b5f61159482611569565b9050919050565b5f6115a58261158a565b9050919050565b6115b58161159b565b82525050565b5f6020820190506115ce5f8301846115ac565b92915050565b5f80fd5b5f819050919050565b6115ea816115d8565b81146115f4575f80fd5b50565b5f81359050611605816115e1565b92915050565b5f61161582611541565b9050919050565b6116258161160b565b811461162f575f80fd5b50565b5f813590506116408161161c565b92915050565b5f805f6060848603121561165d5761165c6115d4565b5b5f61166a868287016115f7565b935050602061167b86828701611632565b925050604061168c86828701611632565b9150509250925092565b61169f816115d8565b82525050565b5f6020820190506116b85f830184611696565b92915050565b5f6116c88261158a565b9050919050565b6116d8816116be565b82525050565b5f6020820190506116f15f8301846116cf565b92915050565b5f805f6060848603121561170e5761170d6115d4565b5b5f61171b86828701611632565b935050602061172c86828701611632565b925050604061173d868287016115f7565b9150509250925092565b5f805f806080858703121561175f5761175e6115d4565b5b5f61176c87828801611632565b945050602061177d87828801611632565b935050604061178e878288016115f7565b925050606061179f878288016115f7565b91505092959194509250565b5f602082840312156117c0576117bf6115d4565b5b5f6117cd84828501611632565b91505092915050565b5f80604083850312156117ec576117eb6115d4565b5b5f6117f985828601611632565b925050602061180a85828601611632565b9150509250929050565b5f6040820190506118275f830185611696565b6118346020830184611696565b9392505050565b5f8115159050919050565b61184f8161183b565b82525050565b5f6040820190506118685f830185611696565b6118756020830184611846565b9392505050565b5f82825260208201905092915050565b7f546f6b656e206e6f7420737570706f72746564000000000000000000000000005f82015250565b5f6118c060138361187c565b91506118cb8261188c565b602082019050919050565b5f6020820190508181035f8301526118ed816118b4565b9050919050565b7f496e76616c696420696e70757420616d6f756e740000000000000000000000005f82015250565b5f61192860148361187c565b9150611933826118f4565b602082019050919050565b5f6020820190508181035f8301526119558161191c565b9050919050565b7f496e73756666696369656e74206c6971756964697479000000000000000000005f82015250565b5f61199060168361187c565b915061199b8261195c565b602082019050919050565b5f6020820190508181035f8301526119bd81611984565b9050919050565b7f4e487b71000000000000000000000000000000000000000000000000000000005f52601160045260245ffd5b5f6119fb826115d8565b9150611a06836115d8565b9250828203905081811115611a1e57611a1d6119c4565b5b92915050565b5f611a2e826115d8565b9150611a39836115d8565b9250828202611a47816115d8565b91508282048414831517611a5e57611a5d6119c4565b5b5092915050565b5f611a6f826115d8565b9150611a7a836115d8565b9250828201905080821115611a9257611a916119c4565b5b92915050565b7f4e487b71000000000000000000000000000000000000000000000000000000005f52601260045260245ffd5b5f611acf826115d8565b9150611ada836115d8565b925082611aea57611ae9611a98565b5b828204905092915050565b7f4e6f206c697175696469747920666f7220746f6b656e204100000000000000005f82015250565b5f611b2960188361187c565b9150611b3482611af5565b602082019050919050565b5f6020820190508181035f830152611b5681611b1d565b9050919050565b7f4e6f206c697175696469747920666f7220746f6b656e204200000000000000005f82015250565b5f611b9160188361187c565b9150611b9c82611b5d565b602082019050919050565b5f6020820190508181035f830152611bbe81611b85565b9050919050565b611bce8161160b565b82525050565b5f606082019050611be75f830186611bc5565b611bf46020830185611bc5565b611c016040830184611696565b949350505050565b611c128161183b565b8114611c1c575f80fd5b50565b5f81519050611c2d81611c09565b92915050565b5f60208284031215611c4857611c476115d4565b5b5f611c5584828501611c1f565b91505092915050565b5f604082019050611c715f830185611bc5565b611c7e6020830184611696565b9392505050565b5f602082019050611c985f830184611bc5565b92915050565b5f81519050611cac816115e1565b92915050565b5f60208284031215611cc757611cc66115d4565b5b5f611cd484828501611c9e565b91505092915050565b7f4e6f7420656e6f756768204c5020746f6b656e730000000000000000000000005f82015250565b5f611d1160148361187c565b9150611d1c82611cdd565b602082019050919050565b5f6020820190508181035f830152611d3e81611d05565b9050919050565b7f4f6e65206f7220626f746820746f6b656e73206e6f7420737570706f727465645f82015250565b5f611d7960208361187c565b9150611d8482611d45565b602082019050919050565b5f6020820190508181035f830152611da681611d6d565b905091905056fea2646970667358221220cac4cb046b7486dca09aba157debcc93991af86a286bccde06ae0e0ed4b057ff64736f6c63430008150033",
  "immutableReferences": {},
  "source": "// SPDX-License-Identifier: MIT\r\npragma solidity ^0.8.0;\r\nimport \"@openzeppelin/contracts/token/ERC20/IERC20.sol\";\r\nimport \"./LPToken.sol\";\r\ncontract DEX {\r\n    IERC20 public tokenA;\r\n    IERC20 public tokenB;\r\n    LPToken public lpToken;\r\n    struct TokenInfo {\r\n        uint256 reserve; // \r\n        bool isListed; // \r\n    }\r\n    mapping(address => TokenInfo) public tokenInfo;\r\n    uint public constant FEE_DENOMINATOR = 10000;\r\n    uint public constant FEE = 30; // 0.3%\r\n\r\n    constructor(\r\n        address _tokenAAddress,\r\n        address _tokenBAddress,\r\n        address _lpTokenAddress\r\n    ) {\r\n        tokenA = IERC20(_tokenAAddress);\r\n        tokenB = IERC20(_tokenBAddress);\r\n        lpToken = LPToken(_lpTokenAddress);\r\n    }\r\n\r\n    function addToken(address token) public {\r\n        tokenInfo[token] = TokenInfo(0, true);\r\n    }\r\n\r\n    // Liquidity\r\n\r\n    function addLiquidity(\r\n        address token1,\r\n        address token2,\r\n        uint256 amountA,\r\n        uint256 amountB\r\n    ) public {\r\n        require(\r\n            tokenInfo[token1].isListed && tokenInfo[token2].isListed,\r\n            \"Token not supported\"\r\n        );\r\n        IERC20(token1).transferFrom(msg.sender, address(this), amountA);\r\n        IERC20(token2).transferFrom(msg.sender, address(this), amountB);\r\n\r\n        tokenInfo[token1].reserve += amountA;\r\n        tokenInfo[token2].reserve += amountB;\r\n\r\n        // LP token\r\n        uint256 liquidity = calculateLiquidityTokens(\r\n            token1,\r\n            token2,\r\n            amountA,\r\n            amountB\r\n        );\r\n        lpToken.mint(msg.sender, liquidity);\r\n    }\r\n\r\n    function removeLiquidity(\r\n        address token1,\r\n        address token2,\r\n        uint256 lpTokenAmount\r\n    ) public {\r\n        require(\r\n            lpToken.balanceOf(msg.sender) >= lpTokenAmount,\r\n            \"Not enough LP tokens\"\r\n        );\r\n\r\n        uint256 totalLpSupply = lpToken.totalSupply();\r\n        uint256 reserveA = tokenInfo[token1].reserve;\r\n        uint256 reserveB = tokenInfo[token2].reserve;\r\n\r\n        // token1token2\r\n        uint256 amountA = (lpTokenAmount * reserveA) / totalLpSupply;\r\n        uint256 amountB = (lpTokenAmount * reserveB) / totalLpSupply;\r\n\r\n        // \r\n        tokenInfo[token1].reserve -= amountA;\r\n        tokenInfo[token2].reserve -= amountB;\r\n\r\n        // \r\n        IERC20(token1).transfer(msg.sender, amountA);\r\n        IERC20(token2).transfer(msg.sender, amountB);\r\n\r\n        // LP\r\n        lpToken.burn(msg.sender, lpTokenAmount);\r\n    }\r\n\r\n    function calculateLiquidityToAdd(\r\n        address token1,\r\n        address token2,\r\n        uint amountA\r\n    ) public view returns (uint amountB) {\r\n        require(\r\n            tokenInfo[token1].isListed && tokenInfo[token2].isListed,\r\n            \"Token not supported\"\r\n        );\r\n        uint reserveA = tokenInfo[token1].reserve;\r\n        uint reserveB = tokenInfo[token2].reserve;\r\n        require(reserveA > 0, \"No liquidity for token A\");\r\n        require(reserveB > 0, \"No liquidity for token B\");\r\n        amountB = (reserveB * amountA) / reserveA;\r\n    }\r\n\r\n    function calculateLiquidityTokens(\r\n        address token1,\r\n        address token2,\r\n        uint256 amountA,\r\n        uint256 amountB\r\n    ) internal view returns (uint256) {\r\n        uint totalSupply = lpToken.totalSupply();\r\n        uint reserveA = tokenInfo[token1].reserve;\r\n        uint reserveB = tokenInfo[token2].reserve;\r\n\r\n        if (totalSupply == 0) {\r\n            return sqrt(amountA * amountB);\r\n        } else {\r\n            uint liquidityA = (amountA * totalSupply) / reserveA;\r\n            uint liquidityB = (amountB * totalSupply) / reserveB;\r\n            return (liquidityA < liquidityB) ? liquidityA : liquidityB;\r\n        }\r\n    }\r\n\r\n    function getReserves(\r\n        address token1,\r\n        address token2\r\n    ) public view returns (uint256 reserveA, uint256 reserveB) {\r\n        return (tokenInfo[token1].reserve, tokenInfo[token2].reserve);\r\n    }\r\n\r\n    // utils\r\n    function sqrt(uint y) internal pure returns (uint z) {\r\n        if (y > 3) {\r\n            z = y;\r\n            uint x = y / 2 + 1;\r\n            while (x < z) {\r\n                z = x;\r\n                x = (y / x + x) / 2;\r\n            }\r\n        } else if (y != 0) {\r\n            z = 1;\r\n        }\r\n    }\r\n\r\n    // swap\r\n    function swap(address tokenIn, address tokenOut, uint256 amountIn) public {\r\n        require(\r\n            tokenInfo[tokenIn].isListed && tokenInfo[tokenOut].isListed,\r\n            \"One or both tokens not supported\"\r\n        );\r\n\r\n        TokenInfo storage inInfo = tokenInfo[tokenIn];\r\n        TokenInfo storage outInfo = tokenInfo[tokenOut];\r\n\r\n        uint256 inBalance = inInfo.reserve;\r\n        uint256 outBalance = outInfo.reserve;\r\n\r\n        uint256 amountInWithFee = (amountIn * (FEE_DENOMINATOR - FEE)) /\r\n            FEE_DENOMINATOR;\r\n        uint256 amountOut = (amountInWithFee * outBalance) /\r\n            (inBalance + amountInWithFee);\r\n        uint256 fee = amountIn - amountInWithFee;\r\n        inInfo.reserve += amountInWithFee + fee;\r\n        outInfo.reserve -= amountOut;\r\n\r\n        IERC20(tokenIn).transferFrom(msg.sender, address(this), amountIn);\r\n        IERC20(tokenOut).transfer(msg.sender, amountOut);\r\n    }\r\n\r\n    function getAmountOut(\r\n        uint amountIn,\r\n        address tokenIn,\r\n        address tokenOut\r\n    ) public view returns (uint amountOut) {\r\n        require(\r\n            tokenInfo[tokenIn].isListed && tokenInfo[tokenOut].isListed,\r\n            \"Token not supported\"\r\n        );\r\n\r\n        uint reserveIn = tokenInfo[tokenIn].reserve;\r\n        uint reserveOut = tokenInfo[tokenOut].reserve;\r\n\r\n        require(amountIn > 0, \"Invalid input amount\");\r\n        require(reserveIn > 0 && reserveOut > 0, \"Insufficient liquidity\");\r\n\r\n        // \r\n        uint amountInWithFee = amountIn * (FEE_DENOMINATOR - FEE);\r\n        amountOut =\r\n            (amountInWithFee * reserveOut) /\r\n            (reserveIn * FEE_DENOMINATOR + amountInWithFee);\r\n    }\r\n}\r\n",
  "sourcePath": "D:\\Code\\simple_dex\\contracts\\Dex.sol",
  "compiler": {
    "name": "solc",
    "version": "0.8.21+commit.d9974bed.Emscripten.clang"
  },
  "schemaVersion": "3.4.16",
  "updatedAt": "2024-08-14T22:00:05.604Z",
  "networkType": "ethereum",
  "devdoc": {
    "kind": "dev",
    "methods": {},
    "version": 1
  },
  "userdoc": {
    "kind": "user",
    "methods": {},
    "version": 1
  }
}