{
  "contractName": "DEX",
  "abi": [
    {
      "inputs": [
        {
          "internalType": "address",
          "name": "_tokenAAddress",
          "type": "address"
        },
        {
          "internalType": "address",
          "name": "_tokenBAddress",
          "type": "address"
        },
        {
          "internalType": "address",
          "name": "_lpTokenAddress",
          "type": "address"
        }
      ],
      "stateMutability": "nonpayable",
      "type": "constructor"
    },
    {
      "inputs": [],
      "name": "FEE",
      "outputs": [
        {
          "internalType": "uint256",
          "name": "",
          "type": "uint256"
        }
      ],
      "stateMutability": "view",
      "type": "function",
      "constant": true
    },
    {
      "inputs": [],
      "name": "FEE_DENOMINATOR",
      "outputs": [
        {
          "internalType": "uint256",
          "name": "",
          "type": "uint256"
        }
      ],
      "stateMutability": "view",
      "type": "function",
      "constant": true
    },
    {
      "inputs": [],
      "name": "lpToken",
      "outputs": [
        {
          "internalType": "contract LPToken",
          "name": "",
          "type": "address"
        }
      ],
      "stateMutability": "view",
      "type": "function",
      "constant": true
    },
    {
      "inputs": [],
      "name": "tokenA",
      "outputs": [
        {
          "internalType": "contract IERC20",
          "name": "",
          "type": "address"
        }
      ],
      "stateMutability": "view",
      "type": "function",
      "constant": true
    },
    {
      "inputs": [],
      "name": "tokenB",
      "outputs": [
        {
          "internalType": "contract IERC20",
          "name": "",
          "type": "address"
        }
      ],
      "stateMutability": "view",
      "type": "function",
      "constant": true
    },
    {
      "inputs": [
        {
          "internalType": "address",
          "name": "",
          "type": "address"
        }
      ],
      "name": "tokenInfo",
      "outputs": [
        {
          "internalType": "uint256",
          "name": "reserve",
          "type": "uint256"
        },
        {
          "internalType": "bool",
          "name": "isListed",
          "type": "bool"
        }
      ],
      "stateMutability": "view",
      "type": "function",
      "constant": true
    },
    {
      "inputs": [
        {
          "internalType": "address",
          "name": "token",
          "type": "address"
        }
      ],
      "name": "addToken",
      "outputs": [],
      "stateMutability": "nonpayable",
      "type": "function"
    },
    {
      "inputs": [
        {
          "internalType": "address",
          "name": "token1",
          "type": "address"
        },
        {
          "internalType": "address",
          "name": "token2",
          "type": "address"
        },
        {
          "internalType": "uint256",
          "name": "amountA",
          "type": "uint256"
        }
      ],
      "name": "calculateLiquidityToAdd",
      "outputs": [
        {
          "internalType": "uint256",
          "name": "amountB",
          "type": "uint256"
        }
      ],
      "stateMutability": "view",
      "type": "function",
      "constant": true
    },
    {
      "inputs": [
        {
          "internalType": "address",
          "name": "token1",
          "type": "address"
        },
        {
          "internalType": "address",
          "name": "token2",
          "type": "address"
        },
        {
          "internalType": "uint256",
          "name": "amountA",
          "type": "uint256"
        },
        {
          "internalType": "uint256",
          "name": "amountB",
          "type": "uint256"
        }
      ],
      "name": "addLiquidity",
      "outputs": [],
      "stateMutability": "nonpayable",
      "type": "function"
    },
    {
      "inputs": [
        {
          "internalType": "address",
          "name": "token1",
          "type": "address"
        },
        {
          "internalType": "address",
          "name": "token2",
          "type": "address"
        }
      ],
      "name": "getReserves",
      "outputs": [
        {
          "internalType": "uint256",
          "name": "reserveA",
          "type": "uint256"
        },
        {
          "internalType": "uint256",
          "name": "reserveB",
          "type": "uint256"
        }
      ],
      "stateMutability": "view",
      "type": "function",
      "constant": true
    },
    {
      "inputs": [
        {
          "internalType": "uint256",
          "name": "amountIn",
          "type": "uint256"
        },
        {
          "internalType": "address",
          "name": "tokenIn",
          "type": "address"
        },
        {
          "internalType": "address",
          "name": "tokenOut",
          "type": "address"
        }
      ],
      "name": "getAmountOut",
      "outputs": [
        {
          "internalType": "uint256",
          "name": "amountOut",
          "type": "uint256"
        }
      ],
      "stateMutability": "view",
      "type": "function",
      "constant": true
    },
    {
      "inputs": [
        {
          "internalType": "address",
          "name": "tokenIn",
          "type": "address"
        },
        {
          "internalType": "address",
          "name": "tokenOut",
          "type": "address"
        },
        {
          "internalType": "uint256",
          "name": "amountIn",
          "type": "uint256"
        }
      ],
      "name": "swap",
      "outputs": [],
      "stateMutability": "nonpayable",
      "type": "function"
    },
    {
      "inputs": [
        {
          "internalType": "address",
          "name": "token",
          "type": "address"
        }
      ],
      "name": "getReserve",
      "outputs": [
        {
          "internalType": "uint256",
          "name": "",
          "type": "uint256"
        }
      ],
      "stateMutability": "view",
      "type": "function",
      "constant": true
    }
  ],
  "bytecode": "0x608060405234801562000010575f80fd5b5060405162001bdb38038062001bdb833981810160405281019062000036919062000163565b825f806101000a81548173ffffffffffffffffffffffffffffffffffffffff021916908373ffffffffffffffffffffffffffffffffffffffff1602179055508160015f6101000a81548173ffffffffffffffffffffffffffffffffffffffff021916908373ffffffffffffffffffffffffffffffffffffffff1602179055508060025f6101000a81548173ffffffffffffffffffffffffffffffffffffffff021916908373ffffffffffffffffffffffffffffffffffffffff160217905550505050620001bc565b5f80fd5b5f73ffffffffffffffffffffffffffffffffffffffff82169050919050565b5f6200012d8262000102565b9050919050565b6200013f8162000121565b81146200014a575f80fd5b50565b5f815190506200015d8162000134565b92915050565b5f805f606084860312156200017d576200017c620000fe565b5b5f6200018c868287016200014d565b93505060206200019f868287016200014d565b9250506040620001b2868287016200014d565b9150509250925092565b611a1180620001ca5f395ff3fe608060405234801561000f575f80fd5b50600436106100cd575f3560e01c8063c9a396e91161008a578063d52bb6f411610064578063d52bb6f414610211578063d73792a914610242578063df791e5014610260578063f5dab7111461027c576100cd565b8063c9a396e9146101a9578063cf6c62ea146101d9578063d48bfca7146101f5576100cd565b80630fc63d10146100d15780635e1e6325146100ef5780635f64b55b1461011f5780635fcbd2851461013d5780637bd03db91461015b578063c57981b51461018b575b5f80fd5b6100d96102ad565b6040516100e6919061126a565b60405180910390f35b610109600480360381019061010491906112f5565b6102d0565b6040516101169190611354565b60405180910390f35b61012761051f565b604051610134919061126a565b60405180910390f35b610145610544565b604051610152919061138d565b60405180910390f35b610175600480360381019061017091906113a6565b610569565b6040516101829190611354565b60405180910390f35b610193610777565b6040516101a09190611354565b60405180910390f35b6101c360048036038101906101be91906113f6565b61077c565b6040516101d09190611354565b60405180910390f35b6101f360048036038101906101ee9190611421565b610850565b005b61020f600480360381019061020a91906113f6565b610b74565b005b61022b60048036038101906102269190611485565b610bf6565b6040516102399291906114c3565b60405180910390f35b61024a610c83565b6040516102579190611354565b60405180910390f35b61027a600480360381019061027591906113a6565b610c89565b005b610296600480360381019061029191906113f6565b610f7e565b6040516102a4929190611504565b60405180910390f35b5f8054906101000a900473ffffffffffffffffffffffffffffffffffffffff1681565b5f60035f8473ffffffffffffffffffffffffffffffffffffffff1673ffffffffffffffffffffffffffffffffffffffff1681526020019081526020015f206001015f9054906101000a900460ff168015610373575060035f8373ffffffffffffffffffffffffffffffffffffffff1673ffffffffffffffffffffffffffffffffffffffff1681526020019081526020015f206001015f9054906101000a900460ff165b6103b2576040517f08c379a00000000000000000000000000000000000000000000000000000000081526004016103a990611585565b60405180910390fd5b5f60035f8573ffffffffffffffffffffffffffffffffffffffff1673ffffffffffffffffffffffffffffffffffffffff1681526020019081526020015f205f015490505f60035f8573ffffffffffffffffffffffffffffffffffffffff1673ffffffffffffffffffffffffffffffffffffffff1681526020019081526020015f205f015490505f861161047a576040517f08c379a0000000000000000000000000000000000000000000000000000000008152600401610471906115ed565b60405180910390fd5b5f8211801561048857505f81115b6104c7576040517f08c379a00000000000000000000000000000000000000000000000000000000081526004016104be90611655565b60405180910390fd5b5f601e6127106104d791906116a0565b876104e291906116d3565b905080612710846104f391906116d3565b6104fd9190611714565b828261050991906116d3565b6105139190611774565b93505050509392505050565b60015f9054906101000a900473ffffffffffffffffffffffffffffffffffffffff1681565b60025f9054906101000a900473ffffffffffffffffffffffffffffffffffffffff1681565b5f60035f8573ffffffffffffffffffffffffffffffffffffffff1673ffffffffffffffffffffffffffffffffffffffff1681526020019081526020015f206001015f9054906101000a900460ff16801561060c575060035f8473ffffffffffffffffffffffffffffffffffffffff1673ffffffffffffffffffffffffffffffffffffffff1681526020019081526020015f206001015f9054906101000a900460ff165b61064b576040517f08c379a000000000000000000000000000000000000000000000000000000000815260040161064290611585565b60405180910390fd5b5f60035f8673ffffffffffffffffffffffffffffffffffffffff1673ffffffffffffffffffffffffffffffffffffffff1681526020019081526020015f205f015490505f60035f8673ffffffffffffffffffffffffffffffffffffffff1673ffffffffffffffffffffffffffffffffffffffff1681526020019081526020015f205f015490505f8211610713576040517f08c379a000000000000000000000000000000000000000000000000000000000815260040161070a906117ee565b60405180910390fd5b5f8111610755576040517f08c379a000000000000000000000000000000000000000000000000000000000815260040161074c90611856565b60405180910390fd5b81848261076291906116d3565b61076c9190611774565b925050509392505050565b601e81565b5f60035f8373ffffffffffffffffffffffffffffffffffffffff1673ffffffffffffffffffffffffffffffffffffffff1681526020019081526020015f206001015f9054906101000a900460ff16610809576040517f08c379a000000000000000000000000000000000000000000000000000000000815260040161080090611585565b60405180910390fd5b60035f8373ffffffffffffffffffffffffffffffffffffffff1673ffffffffffffffffffffffffffffffffffffffff1681526020019081526020015f205f01549050919050565b60035f8573ffffffffffffffffffffffffffffffffffffffff1673ffffffffffffffffffffffffffffffffffffffff1681526020019081526020015f206001015f9054906101000a900460ff1680156108f2575060035f8473ffffffffffffffffffffffffffffffffffffffff1673ffffffffffffffffffffffffffffffffffffffff1681526020019081526020015f206001015f9054906101000a900460ff165b610931576040517f08c379a000000000000000000000000000000000000000000000000000000000815260040161092890611585565b60405180910390fd5b8373ffffffffffffffffffffffffffffffffffffffff166323b872dd3330856040518463ffffffff1660e01b815260040161096e93929190611883565b6020604051808303815f875af115801561098a573d5f803e3d5ffd5b505050506040513d601f19601f820116820180604052508101906109ae91906118e2565b508273ffffffffffffffffffffffffffffffffffffffff166323b872dd3330846040518463ffffffff1660e01b81526004016109ec93929190611883565b6020604051808303815f875af1158015610a08573d5f803e3d5ffd5b505050506040513d601f19601f82011682018060405250810190610a2c91906118e2565b508160035f8673ffffffffffffffffffffffffffffffffffffffff1673ffffffffffffffffffffffffffffffffffffffff1681526020019081526020015f205f015f828254610a7b9190611714565b925050819055508060035f8573ffffffffffffffffffffffffffffffffffffffff1673ffffffffffffffffffffffffffffffffffffffff1681526020019081526020015f205f015f828254610ad09190611714565b925050819055505f610ae28383610faa565b905060025f9054906101000a900473ffffffffffffffffffffffffffffffffffffffff1673ffffffffffffffffffffffffffffffffffffffff166340c10f1933836040518363ffffffff1660e01b8152600401610b4092919061190d565b5f604051808303815f87803b158015610b57575f80fd5b505af1158015610b69573d5f803e3d5ffd5b505050505050505050565b60405180604001604052805f81526020016001151581525060035f8373ffffffffffffffffffffffffffffffffffffffff1673ffffffffffffffffffffffffffffffffffffffff1681526020019081526020015f205f820151815f01556020820151816001015f6101000a81548160ff02191690831515021790555090505050565b5f8060035f8573ffffffffffffffffffffffffffffffffffffffff1673ffffffffffffffffffffffffffffffffffffffff1681526020019081526020015f205f015460035f8573ffffffffffffffffffffffffffffffffffffffff1673ffffffffffffffffffffffffffffffffffffffff1681526020019081526020015f205f0154915091509250929050565b61271081565b60035f8473ffffffffffffffffffffffffffffffffffffffff1673ffffffffffffffffffffffffffffffffffffffff1681526020019081526020015f206001015f9054906101000a900460ff168015610d2b575060035f8373ffffffffffffffffffffffffffffffffffffffff1673ffffffffffffffffffffffffffffffffffffffff1681526020019081526020015f206001015f9054906101000a900460ff165b610d6a576040517f08c379a0000000000000000000000000000000000000000000000000000000008152600401610d619061197e565b60405180910390fd5b5f60035f8573ffffffffffffffffffffffffffffffffffffffff1673ffffffffffffffffffffffffffffffffffffffff1681526020019081526020015f2090505f60035f8573ffffffffffffffffffffffffffffffffffffffff1673ffffffffffffffffffffffffffffffffffffffff1681526020019081526020015f2090505f825f015490505f825f015490505f612710601e612710610e0b91906116a0565b87610e1691906116d3565b610e209190611774565b90505f8184610e2f9190611714565b8383610e3b91906116d3565b610e459190611774565b905086865f015f828254610e599190611714565b9250508190555080855f015f828254610e7291906116a0565b925050819055508873ffffffffffffffffffffffffffffffffffffffff166323b872dd33308a6040518463ffffffff1660e01b8152600401610eb693929190611883565b6020604051808303815f875af1158015610ed2573d5f803e3d5ffd5b505050506040513d601f19601f82011682018060405250810190610ef691906118e2565b508773ffffffffffffffffffffffffffffffffffffffff1663a9059cbb33836040518363ffffffff1660e01b8152600401610f3292919061190d565b6020604051808303815f875af1158015610f4e573d5f803e3d5ffd5b505050506040513d601f19601f82011682018060405250810190610f7291906118e2565b50505050505050505050565b6003602052805f5260405f205f91509050805f015490806001015f9054906101000a900460ff16905082565b5f8060025f9054906101000a900473ffffffffffffffffffffffffffffffffffffffff1673ffffffffffffffffffffffffffffffffffffffff166318160ddd6040518163ffffffff1660e01b8152600401602060405180830381865afa158015611016573d5f803e3d5ffd5b505050506040513d601f19601f8201168201806040525081019061103a91906119b0565b90505f60035f805f9054906101000a900473ffffffffffffffffffffffffffffffffffffffff1673ffffffffffffffffffffffffffffffffffffffff1673ffffffffffffffffffffffffffffffffffffffff1681526020019081526020015f205f015490505f60035f60015f9054906101000a900473ffffffffffffffffffffffffffffffffffffffff1673ffffffffffffffffffffffffffffffffffffffff1673ffffffffffffffffffffffffffffffffffffffff1681526020019081526020015f205f015490505f83036111285761111e858761111991906116d3565b611179565b9350505050611173565b5f82848861113691906116d3565b6111409190611774565b90505f82858861115091906116d3565b61115a9190611774565b9050808210611169578061116b565b815b955050505050505b92915050565b5f60038211156111de578190505f60016002846111969190611774565b6111a09190611714565b90505b818110156111d85780915060028182856111bd9190611774565b6111c79190611714565b6111d19190611774565b90506111a3565b506111eb565b5f82146111ea57600190505b5b919050565b5f73ffffffffffffffffffffffffffffffffffffffff82169050919050565b5f819050919050565b5f61123261122d611228846111f0565b61120f565b6111f0565b9050919050565b5f61124382611218565b9050919050565b5f61125482611239565b9050919050565b6112648161124a565b82525050565b5f60208201905061127d5f83018461125b565b92915050565b5f80fd5b5f819050919050565b61129981611287565b81146112a3575f80fd5b50565b5f813590506112b481611290565b92915050565b5f6112c4826111f0565b9050919050565b6112d4816112ba565b81146112de575f80fd5b50565b5f813590506112ef816112cb565b92915050565b5f805f6060848603121561130c5761130b611283565b5b5f611319868287016112a6565b935050602061132a868287016112e1565b925050604061133b868287016112e1565b9150509250925092565b61134e81611287565b82525050565b5f6020820190506113675f830184611345565b92915050565b5f61137782611239565b9050919050565b6113878161136d565b82525050565b5f6020820190506113a05f83018461137e565b92915050565b5f805f606084860312156113bd576113bc611283565b5b5f6113ca868287016112e1565b93505060206113db868287016112e1565b92505060406113ec868287016112a6565b9150509250925092565b5f6020828403121561140b5761140a611283565b5b5f611418848285016112e1565b91505092915050565b5f805f806080858703121561143957611438611283565b5b5f611446878288016112e1565b9450506020611457878288016112e1565b9350506040611468878288016112a6565b9250506060611479878288016112a6565b91505092959194509250565b5f806040838503121561149b5761149a611283565b5b5f6114a8858286016112e1565b92505060206114b9858286016112e1565b9150509250929050565b5f6040820190506114d65f830185611345565b6114e36020830184611345565b9392505050565b5f8115159050919050565b6114fe816114ea565b82525050565b5f6040820190506115175f830185611345565b61152460208301846114f5565b9392505050565b5f82825260208201905092915050565b7f546f6b656e206e6f7420737570706f72746564000000000000000000000000005f82015250565b5f61156f60138361152b565b915061157a8261153b565b602082019050919050565b5f6020820190508181035f83015261159c81611563565b9050919050565b7f496e76616c696420696e70757420616d6f756e740000000000000000000000005f82015250565b5f6115d760148361152b565b91506115e2826115a3565b602082019050919050565b5f6020820190508181035f830152611604816115cb565b9050919050565b7f496e73756666696369656e74206c6971756964697479000000000000000000005f82015250565b5f61163f60168361152b565b915061164a8261160b565b602082019050919050565b5f6020820190508181035f83015261166c81611633565b9050919050565b7f4e487b71000000000000000000000000000000000000000000000000000000005f52601160045260245ffd5b5f6116aa82611287565b91506116b583611287565b92508282039050818111156116cd576116cc611673565b5b92915050565b5f6116dd82611287565b91506116e883611287565b92508282026116f681611287565b9150828204841483151761170d5761170c611673565b5b5092915050565b5f61171e82611287565b915061172983611287565b925082820190508082111561174157611740611673565b5b92915050565b7f4e487b71000000000000000000000000000000000000000000000000000000005f52601260045260245ffd5b5f61177e82611287565b915061178983611287565b92508261179957611798611747565b5b828204905092915050565b7f4e6f206c697175696469747920666f7220746f6b656e204100000000000000005f82015250565b5f6117d860188361152b565b91506117e3826117a4565b602082019050919050565b5f6020820190508181035f830152611805816117cc565b9050919050565b7f4e6f206c697175696469747920666f7220746f6b656e204200000000000000005f82015250565b5f61184060188361152b565b915061184b8261180c565b602082019050919050565b5f6020820190508181035f83015261186d81611834565b9050919050565b61187d816112ba565b82525050565b5f6060820190506118965f830186611874565b6118a36020830185611874565b6118b06040830184611345565b949350505050565b6118c1816114ea565b81146118cb575f80fd5b50565b5f815190506118dc816118b8565b92915050565b5f602082840312156118f7576118f6611283565b5b5f611904848285016118ce565b91505092915050565b5f6040820190506119205f830185611874565b61192d6020830184611345565b9392505050565b7f4f6e65206f7220626f746820746f6b656e73206e6f7420737570706f727465645f82015250565b5f61196860208361152b565b915061197382611934565b602082019050919050565b5f6020820190508181035f8301526119958161195c565b9050919050565b5f815190506119aa81611290565b92915050565b5f602082840312156119c5576119c4611283565b5b5f6119d28482850161199c565b9150509291505056fea2646970667358221220671d170c041d60069c4b54b2ffe539491651800eb6f605682e3ac131de6d613864736f6c63430008150033",
  "immutableReferences": {},
  "source": "// SPDX-License-Identifier: MIT\r\npragma solidity ^0.8.0;\r\nimport \"@openzeppelin/contracts/token/ERC20/IERC20.sol\";\r\nimport \"./LPToken.sol\";\r\ncontract DEX {\r\n    IERC20 public tokenA;\r\n    IERC20 public tokenB;\r\n    LPToken public lpToken;\r\n    struct TokenInfo {\r\n        uint256 reserve; // \r\n        bool isListed; // \r\n    }\r\n    mapping(address => TokenInfo) public tokenInfo;\r\n    uint public constant FEE_DENOMINATOR = 10000;\r\n    uint public constant FEE = 30; // 0.3%\r\n\r\n    constructor(\r\n        address _tokenAAddress,\r\n        address _tokenBAddress,\r\n        address _lpTokenAddress\r\n    ) {\r\n        tokenA = IERC20(_tokenAAddress);\r\n        tokenB = IERC20(_tokenBAddress);\r\n        lpToken = LPToken(_lpTokenAddress);\r\n    }\r\n    function addToken(address token) public {\r\n        tokenInfo[token] = TokenInfo(0, true);\r\n    }\r\n    // Liquidity\r\n    function calculateLiquidityToAdd(\r\n        address token1,\r\n        address token2,\r\n        uint amountA\r\n    ) public view returns (uint amountB) {\r\n        require(\r\n            tokenInfo[token1].isListed && tokenInfo[token2].isListed,\r\n            \"Token not supported\"\r\n        );\r\n        uint reserveA = tokenInfo[token1].reserve;\r\n        uint reserveB = tokenInfo[token2].reserve;\r\n        require(reserveA > 0, \"No liquidity for token A\");\r\n        require(reserveB > 0, \"No liquidity for token B\");\r\n        amountB = (reserveB * amountA) / reserveA;\r\n    }\r\n\r\n    function addLiquidity(\r\n        address token1,\r\n        address token2,\r\n        uint256 amountA,\r\n        uint256 amountB\r\n    ) public {\r\n        require(\r\n            tokenInfo[token1].isListed && tokenInfo[token2].isListed,\r\n            \"Token not supported\"\r\n        );\r\n        IERC20(token1).transferFrom(msg.sender, address(this), amountA);\r\n        IERC20(token2).transferFrom(msg.sender, address(this), amountB);\r\n\r\n        tokenInfo[token1].reserve += amountA;\r\n        tokenInfo[token2].reserve += amountB;\r\n\r\n        // LP token\r\n        uint256 liquidity = calculateLiquidityTokens(amountA, amountB);\r\n        lpToken.mint(msg.sender, liquidity);\r\n    }\r\n    function calculateLiquidityTokens(\r\n        uint256 amountA,\r\n        uint256 amountB\r\n    ) internal view returns (uint256) {\r\n        uint totalSupply = lpToken.totalSupply();\r\n        uint reserveA = tokenInfo[address(tokenA)].reserve;\r\n        uint reserveB = tokenInfo[address(tokenB)].reserve;\r\n\r\n        if (totalSupply == 0) {\r\n            return sqrt(amountA * amountB);\r\n        } else {\r\n            uint liquidityA = (amountA * totalSupply) / reserveA;\r\n            uint liquidityB = (amountB * totalSupply) / reserveB;\r\n            return (liquidityA < liquidityB) ? liquidityA : liquidityB;\r\n        }\r\n    }\r\n\r\n    function sqrt(uint y) internal pure returns (uint z) {\r\n        if (y > 3) {\r\n            z = y;\r\n            uint x = y / 2 + 1;\r\n            while (x < z) {\r\n                z = x;\r\n                x = (y / x + x) / 2;\r\n            }\r\n        } else if (y != 0) {\r\n            z = 1;\r\n        }\r\n    }\r\n    function getReserves(\r\n        address token1,\r\n        address token2\r\n    ) public view returns (uint256 reserveA, uint256 reserveB) {\r\n        return (tokenInfo[token1].reserve, tokenInfo[token2].reserve);\r\n    }\r\n    function getAmountOut(\r\n        uint amountIn,\r\n        address tokenIn,\r\n        address tokenOut\r\n    ) public view returns (uint amountOut) {\r\n        require(\r\n            tokenInfo[tokenIn].isListed && tokenInfo[tokenOut].isListed,\r\n            \"Token not supported\"\r\n        );\r\n\r\n        uint reserveIn = tokenInfo[tokenIn].reserve;\r\n        uint reserveOut = tokenInfo[tokenOut].reserve;\r\n\r\n        require(amountIn > 0, \"Invalid input amount\");\r\n        require(reserveIn > 0 && reserveOut > 0, \"Insufficient liquidity\");\r\n\r\n        // \r\n        uint amountInWithFee = amountIn * (FEE_DENOMINATOR - FEE);\r\n        amountOut =\r\n            (amountInWithFee * reserveOut) /\r\n            (reserveIn * FEE_DENOMINATOR + amountInWithFee);\r\n    }\r\n    // function removeLiquidity() {}\r\n    // swap\r\n    function swap(address tokenIn, address tokenOut, uint256 amountIn) public {\r\n        require(\r\n            tokenInfo[tokenIn].isListed && tokenInfo[tokenOut].isListed,\r\n            \"One or both tokens not supported\"\r\n        );\r\n\r\n        TokenInfo storage inInfo = tokenInfo[tokenIn];\r\n        TokenInfo storage outInfo = tokenInfo[tokenOut];\r\n\r\n        uint256 inBalance = inInfo.reserve;\r\n        uint256 outBalance = outInfo.reserve;\r\n\r\n        uint256 amountInWithFee = (amountIn * (FEE_DENOMINATOR - FEE)) /\r\n            FEE_DENOMINATOR;\r\n        uint256 amountOut = (amountInWithFee * outBalance) /\r\n            (inBalance + amountInWithFee);\r\n\r\n        inInfo.reserve += amountIn;\r\n        outInfo.reserve -= amountOut;\r\n\r\n        IERC20(tokenIn).transferFrom(msg.sender, address(this), amountIn);\r\n        IERC20(tokenOut).transfer(msg.sender, amountOut);\r\n    }\r\n    function getReserve(address token) public view returns (uint256) {\r\n        require(tokenInfo[token].isListed, \"Token not supported\");\r\n        return tokenInfo[token].reserve;\r\n    }\r\n}\r\n",
  "sourcePath": "D:\\Code\\simple_dex\\contracts\\Dex.sol",
  "compiler": {
    "name": "solc",
    "version": "0.8.21+commit.d9974bed.Emscripten.clang"
  },
  "schemaVersion": "3.4.16",
  "updatedAt": "2024-08-14T17:50:29.095Z",
  "networkType": "ethereum",
  "devdoc": {
    "kind": "dev",
    "methods": {},
    "version": 1
  },
  "userdoc": {
    "kind": "user",
    "methods": {},
    "version": 1
  }
}