{
  "contractName": "DEX",
  "abi": [
    {
      "inputs": [
        {
          "internalType": "address",
          "name": "_tokenAAddress",
          "type": "address"
        },
        {
          "internalType": "address",
          "name": "_tokenBAddress",
          "type": "address"
        },
        {
          "internalType": "address",
          "name": "_lpTokenAddress",
          "type": "address"
        }
      ],
      "stateMutability": "nonpayable",
      "type": "constructor"
    },
    {
      "inputs": [
        {
          "internalType": "address",
          "name": "owner",
          "type": "address"
        }
      ],
      "name": "OwnableInvalidOwner",
      "type": "error"
    },
    {
      "inputs": [
        {
          "internalType": "address",
          "name": "account",
          "type": "address"
        }
      ],
      "name": "OwnableUnauthorizedAccount",
      "type": "error"
    },
    {
      "anonymous": false,
      "inputs": [
        {
          "indexed": true,
          "internalType": "address",
          "name": "previousOwner",
          "type": "address"
        },
        {
          "indexed": true,
          "internalType": "address",
          "name": "newOwner",
          "type": "address"
        }
      ],
      "name": "OwnershipTransferred",
      "type": "event"
    },
    {
      "inputs": [],
      "name": "FEE",
      "outputs": [
        {
          "internalType": "uint256",
          "name": "",
          "type": "uint256"
        }
      ],
      "stateMutability": "view",
      "type": "function",
      "constant": true
    },
    {
      "inputs": [],
      "name": "FEE_DENOMINATOR",
      "outputs": [
        {
          "internalType": "uint256",
          "name": "",
          "type": "uint256"
        }
      ],
      "stateMutability": "view",
      "type": "function",
      "constant": true
    },
    {
      "inputs": [],
      "name": "lpToken",
      "outputs": [
        {
          "internalType": "contract LPToken",
          "name": "",
          "type": "address"
        }
      ],
      "stateMutability": "view",
      "type": "function",
      "constant": true
    },
    {
      "inputs": [],
      "name": "owner",
      "outputs": [
        {
          "internalType": "address",
          "name": "",
          "type": "address"
        }
      ],
      "stateMutability": "view",
      "type": "function",
      "constant": true
    },
    {
      "inputs": [],
      "name": "renounceOwnership",
      "outputs": [],
      "stateMutability": "nonpayable",
      "type": "function"
    },
    {
      "inputs": [],
      "name": "tokenA",
      "outputs": [
        {
          "internalType": "contract IERC20",
          "name": "",
          "type": "address"
        }
      ],
      "stateMutability": "view",
      "type": "function",
      "constant": true
    },
    {
      "inputs": [],
      "name": "tokenB",
      "outputs": [
        {
          "internalType": "contract IERC20",
          "name": "",
          "type": "address"
        }
      ],
      "stateMutability": "view",
      "type": "function",
      "constant": true
    },
    {
      "inputs": [
        {
          "internalType": "address",
          "name": "",
          "type": "address"
        }
      ],
      "name": "tokenInfo",
      "outputs": [
        {
          "internalType": "uint256",
          "name": "reserve",
          "type": "uint256"
        },
        {
          "internalType": "bool",
          "name": "isListed",
          "type": "bool"
        }
      ],
      "stateMutability": "view",
      "type": "function",
      "constant": true
    },
    {
      "inputs": [
        {
          "internalType": "address",
          "name": "newOwner",
          "type": "address"
        }
      ],
      "name": "transferOwnership",
      "outputs": [],
      "stateMutability": "nonpayable",
      "type": "function"
    },
    {
      "inputs": [
        {
          "internalType": "address",
          "name": "token",
          "type": "address"
        }
      ],
      "name": "addToken",
      "outputs": [],
      "stateMutability": "nonpayable",
      "type": "function"
    },
    {
      "inputs": [
        {
          "internalType": "address",
          "name": "token1",
          "type": "address"
        },
        {
          "internalType": "address",
          "name": "token2",
          "type": "address"
        },
        {
          "internalType": "uint256",
          "name": "amountA",
          "type": "uint256"
        },
        {
          "internalType": "uint256",
          "name": "amountB",
          "type": "uint256"
        }
      ],
      "name": "addLiquidity",
      "outputs": [],
      "stateMutability": "nonpayable",
      "type": "function"
    },
    {
      "inputs": [
        {
          "internalType": "address",
          "name": "token1",
          "type": "address"
        },
        {
          "internalType": "address",
          "name": "token2",
          "type": "address"
        },
        {
          "internalType": "uint256",
          "name": "lpTokenAmount",
          "type": "uint256"
        }
      ],
      "name": "removeLiquidity",
      "outputs": [],
      "stateMutability": "nonpayable",
      "type": "function"
    },
    {
      "inputs": [
        {
          "internalType": "address",
          "name": "token1",
          "type": "address"
        },
        {
          "internalType": "address",
          "name": "token2",
          "type": "address"
        },
        {
          "internalType": "uint256",
          "name": "amountA",
          "type": "uint256"
        }
      ],
      "name": "calculateLiquidityToAdd",
      "outputs": [
        {
          "internalType": "uint256",
          "name": "amountB",
          "type": "uint256"
        }
      ],
      "stateMutability": "view",
      "type": "function",
      "constant": true
    },
    {
      "inputs": [
        {
          "internalType": "address",
          "name": "token1",
          "type": "address"
        },
        {
          "internalType": "address",
          "name": "token2",
          "type": "address"
        }
      ],
      "name": "getReserves",
      "outputs": [
        {
          "internalType": "uint256",
          "name": "reserveA",
          "type": "uint256"
        },
        {
          "internalType": "uint256",
          "name": "reserveB",
          "type": "uint256"
        }
      ],
      "stateMutability": "view",
      "type": "function",
      "constant": true
    },
    {
      "inputs": [
        {
          "internalType": "address",
          "name": "tokenIn",
          "type": "address"
        },
        {
          "internalType": "address",
          "name": "tokenOut",
          "type": "address"
        },
        {
          "internalType": "uint256",
          "name": "amountIn",
          "type": "uint256"
        }
      ],
      "name": "swap",
      "outputs": [],
      "stateMutability": "nonpayable",
      "type": "function"
    },
    {
      "inputs": [
        {
          "internalType": "uint256",
          "name": "amountIn",
          "type": "uint256"
        },
        {
          "internalType": "address",
          "name": "tokenIn",
          "type": "address"
        },
        {
          "internalType": "address",
          "name": "tokenOut",
          "type": "address"
        }
      ],
      "name": "getAmountOut",
      "outputs": [
        {
          "internalType": "uint256",
          "name": "amountOut",
          "type": "uint256"
        }
      ],
      "stateMutability": "view",
      "type": "function",
      "constant": true
    }
  ],
  "bytecode": "0x608060405234801562000010575f80fd5b5060405162002b5b38038062002b5b8339818101604052810190620000369190620002ab565b335f73ffffffffffffffffffffffffffffffffffffffff168173ffffffffffffffffffffffffffffffffffffffff1603620000aa575f6040517f1e4fbdf7000000000000000000000000000000000000000000000000000000008152600401620000a1919062000315565b60405180910390fd5b620000bb816200018560201b60201c565b508260015f6101000a81548173ffffffffffffffffffffffffffffffffffffffff021916908373ffffffffffffffffffffffffffffffffffffffff1602179055508160025f6101000a81548173ffffffffffffffffffffffffffffffffffffffff021916908373ffffffffffffffffffffffffffffffffffffffff1602179055508060035f6101000a81548173ffffffffffffffffffffffffffffffffffffffff021916908373ffffffffffffffffffffffffffffffffffffffff16021790555050505062000330565b5f805f9054906101000a900473ffffffffffffffffffffffffffffffffffffffff169050815f806101000a81548173ffffffffffffffffffffffffffffffffffffffff021916908373ffffffffffffffffffffffffffffffffffffffff1602179055508173ffffffffffffffffffffffffffffffffffffffff168173ffffffffffffffffffffffffffffffffffffffff167f8be0079c531659141344cd1fd0a4f28419497f9722a3daafe3b4186f6b6457e060405160405180910390a35050565b5f80fd5b5f73ffffffffffffffffffffffffffffffffffffffff82169050919050565b5f62000275826200024a565b9050919050565b620002878162000269565b811462000292575f80fd5b50565b5f81519050620002a5816200027c565b92915050565b5f805f60608486031215620002c557620002c462000246565b5b5f620002d48682870162000295565b9350506020620002e78682870162000295565b9250506040620002fa8682870162000295565b9150509250925092565b6200030f8162000269565b82525050565b5f6020820190506200032a5f83018462000304565b92915050565b61281d806200033e5f395ff3fe608060405234801561000f575f80fd5b50600436106100fe575f3560e01c8063cf6c62ea11610095578063d752fab211610064578063d752fab214610289578063df791e50146102a5578063f2fde38b146102c1578063f5dab711146102dd576100fe565b8063cf6c62ea14610202578063d48bfca71461021e578063d52bb6f41461023a578063d73792a91461026b576100fe565b8063715018a6116100d1578063715018a61461018c5780637bd03db9146101965780638da5cb5b146101c6578063c57981b5146101e4576100fe565b80630fc63d10146101025780635e1e6325146101205780635f64b55b146101505780635fcbd2851461016e575b5f80fd5b61010a61030e565b6040516101179190611c8f565b60405180910390f35b61013a60048036038101906101359190611d1a565b610333565b6040516101479190611d79565b60405180910390f35b61015861058f565b6040516101659190611c8f565b60405180910390f35b6101766105b4565b6040516101839190611db2565b60405180910390f35b6101946105d9565b005b6101b060048036038101906101ab9190611dcb565b6105ec565b6040516101bd9190611d79565b60405180910390f35b6101ce6107fa565b6040516101db9190611e2a565b60405180910390f35b6101ec610821565b6040516101f99190611d79565b60405180910390f35b61021c60048036038101906102179190611e43565b610826565b005b61023860048036038101906102339190611ea7565b610d2f565b005b610254600480360381019061024f9190611ed2565b610e46565b604051610262929190611f10565b60405180910390f35b610273610ed3565b6040516102809190611d79565b60405180910390f35b6102a3600480360381019061029e9190611dcb565b610ed9565b005b6102bf60048036038101906102ba9190611dcb565b611438565b005b6102db60048036038101906102d69190611ea7565b61180f565b005b6102f760048036038101906102f29190611ea7565b611893565b604051610305929190611f51565b60405180910390f35b60015f9054906101000a900473ffffffffffffffffffffffffffffffffffffffff1681565b5f60045f8473ffffffffffffffffffffffffffffffffffffffff1673ffffffffffffffffffffffffffffffffffffffff1681526020019081526020015f206001015f9054906101000a900460ff1680156103d6575060045f8373ffffffffffffffffffffffffffffffffffffffff1673ffffffffffffffffffffffffffffffffffffffff1681526020019081526020015f206001015f9054906101000a900460ff165b610415576040517f08c379a000000000000000000000000000000000000000000000000000000000815260040161040c90611fd2565b60405180910390fd5b5f60045f8573ffffffffffffffffffffffffffffffffffffffff1673ffffffffffffffffffffffffffffffffffffffff1681526020019081526020015f205f015490505f60045f8573ffffffffffffffffffffffffffffffffffffffff1673ffffffffffffffffffffffffffffffffffffffff1681526020019081526020015f205f015490505f86116104dd576040517f08c379a00000000000000000000000000000000000000000000000000000000081526004016104d49061203a565b60405180910390fd5b5f821180156104eb57505f81115b61052a576040517f08c379a0000000000000000000000000000000000000000000000000000000008152600401610521906120a2565b60405180910390fd5b5f612710601e61271061053d91906120ed565b886105489190612120565b610552919061218e565b905080612710846105639190612120565b61056d91906121be565b82826105799190612120565b610583919061218e565b93505050509392505050565b60025f9054906101000a900473ffffffffffffffffffffffffffffffffffffffff1681565b60035f9054906101000a900473ffffffffffffffffffffffffffffffffffffffff1681565b6105e16118bf565b6105ea5f611946565b565b5f60045f8573ffffffffffffffffffffffffffffffffffffffff1673ffffffffffffffffffffffffffffffffffffffff1681526020019081526020015f206001015f9054906101000a900460ff16801561068f575060045f8473ffffffffffffffffffffffffffffffffffffffff1673ffffffffffffffffffffffffffffffffffffffff1681526020019081526020015f206001015f9054906101000a900460ff165b6106ce576040517f08c379a00000000000000000000000000000000000000000000000000000000081526004016106c590611fd2565b60405180910390fd5b5f60045f8673ffffffffffffffffffffffffffffffffffffffff1673ffffffffffffffffffffffffffffffffffffffff1681526020019081526020015f205f015490505f60045f8673ffffffffffffffffffffffffffffffffffffffff1673ffffffffffffffffffffffffffffffffffffffff1681526020019081526020015f205f015490505f8211610796576040517f08c379a000000000000000000000000000000000000000000000000000000000815260040161078d9061223b565b60405180910390fd5b5f81116107d8576040517f08c379a00000000000000000000000000000000000000000000000000000000081526004016107cf906122a3565b60405180910390fd5b8184826107e59190612120565b6107ef919061218e565b925050509392505050565b5f805f9054906101000a900473ffffffffffffffffffffffffffffffffffffffff16905090565b601e81565b60045f8573ffffffffffffffffffffffffffffffffffffffff1673ffffffffffffffffffffffffffffffffffffffff1681526020019081526020015f206001015f9054906101000a900460ff1680156108c8575060045f8473ffffffffffffffffffffffffffffffffffffffff1673ffffffffffffffffffffffffffffffffffffffff1681526020019081526020015f206001015f9054906101000a900460ff165b610907576040517f08c379a00000000000000000000000000000000000000000000000000000000081526004016108fe90611fd2565b60405180910390fd5b5f8211801561091557505f81115b610954576040517f08c379a000000000000000000000000000000000000000000000000000000000815260040161094b9061230b565b60405180910390fd5b60045f8573ffffffffffffffffffffffffffffffffffffffff1673ffffffffffffffffffffffffffffffffffffffff1681526020019081526020015f205f01548260045f8773ffffffffffffffffffffffffffffffffffffffff1673ffffffffffffffffffffffffffffffffffffffff1681526020019081526020015f205f01546109df91906121be565b11610a1f576040517f08c379a0000000000000000000000000000000000000000000000000000000008152600401610a1690612373565b60405180910390fd5b60045f8473ffffffffffffffffffffffffffffffffffffffff1673ffffffffffffffffffffffffffffffffffffffff1681526020019081526020015f205f01548160045f8673ffffffffffffffffffffffffffffffffffffffff1673ffffffffffffffffffffffffffffffffffffffff1681526020019081526020015f205f0154610aaa91906121be565b11610aea576040517f08c379a0000000000000000000000000000000000000000000000000000000008152600401610ae1906123db565b60405180910390fd5b8373ffffffffffffffffffffffffffffffffffffffff166323b872dd3330856040518463ffffffff1660e01b8152600401610b27939291906123f9565b6020604051808303815f875af1158015610b43573d5f803e3d5ffd5b505050506040513d601f19601f82011682018060405250810190610b679190612458565b508273ffffffffffffffffffffffffffffffffffffffff166323b872dd3330846040518463ffffffff1660e01b8152600401610ba5939291906123f9565b6020604051808303815f875af1158015610bc1573d5f803e3d5ffd5b505050506040513d601f19601f82011682018060405250810190610be59190612458565b508160045f8673ffffffffffffffffffffffffffffffffffffffff1673ffffffffffffffffffffffffffffffffffffffff1681526020019081526020015f205f015f828254610c3491906121be565b925050819055508060045f8573ffffffffffffffffffffffffffffffffffffffff1673ffffffffffffffffffffffffffffffffffffffff1681526020019081526020015f205f015f828254610c8991906121be565b925050819055505f610c9d85858585611a07565b905060035f9054906101000a900473ffffffffffffffffffffffffffffffffffffffff1673ffffffffffffffffffffffffffffffffffffffff166340c10f1933836040518363ffffffff1660e01b8152600401610cfb929190612483565b5f604051808303815f87803b158015610d12575f80fd5b505af1158015610d24573d5f803e3d5ffd5b505050505050505050565b610d376118bf565b60045f8273ffffffffffffffffffffffffffffffffffffffff1673ffffffffffffffffffffffffffffffffffffffff1681526020019081526020015f206001015f9054906101000a900460ff1615610dc4576040517f08c379a0000000000000000000000000000000000000000000000000000000008152600401610dbb906124f4565b60405180910390fd5b60405180604001604052805f81526020016001151581525060045f8373ffffffffffffffffffffffffffffffffffffffff1673ffffffffffffffffffffffffffffffffffffffff1681526020019081526020015f205f820151815f01556020820151816001015f6101000a81548160ff02191690831515021790555090505050565b5f8060045f8573ffffffffffffffffffffffffffffffffffffffff1673ffffffffffffffffffffffffffffffffffffffff1681526020019081526020015f205f015460045f8573ffffffffffffffffffffffffffffffffffffffff1673ffffffffffffffffffffffffffffffffffffffff1681526020019081526020015f205f0154915091509250929050565b61271081565b8060035f9054906101000a900473ffffffffffffffffffffffffffffffffffffffff1673ffffffffffffffffffffffffffffffffffffffff166370a08231336040518263ffffffff1660e01b8152600401610f349190611e2a565b602060405180830381865afa158015610f4f573d5f803e3d5ffd5b505050506040513d601f19601f82011682018060405250810190610f739190612526565b1015610fb4576040517f08c379a0000000000000000000000000000000000000000000000000000000008152600401610fab9061259b565b60405180910390fd5b5f60035f9054906101000a900473ffffffffffffffffffffffffffffffffffffffff1673ffffffffffffffffffffffffffffffffffffffff166318160ddd6040518163ffffffff1660e01b8152600401602060405180830381865afa15801561101f573d5f803e3d5ffd5b505050506040513d601f19601f820116820180604052508101906110439190612526565b90505f60045f8673ffffffffffffffffffffffffffffffffffffffff1673ffffffffffffffffffffffffffffffffffffffff1681526020019081526020015f205f015490505f60045f8673ffffffffffffffffffffffffffffffffffffffff1673ffffffffffffffffffffffffffffffffffffffff1681526020019081526020015f205f015490505f8383866110d99190612120565b6110e3919061218e565b90505f8483876110f39190612120565b6110fd919061218e565b90508160045f8a73ffffffffffffffffffffffffffffffffffffffff1673ffffffffffffffffffffffffffffffffffffffff1681526020019081526020015f205f01541015611181576040517f08c379a000000000000000000000000000000000000000000000000000000000815260040161117890612603565b60405180910390fd5b8060045f8973ffffffffffffffffffffffffffffffffffffffff1673ffffffffffffffffffffffffffffffffffffffff1681526020019081526020015f205f01541015611203576040517f08c379a00000000000000000000000000000000000000000000000000000000081526004016111fa9061266b565b60405180910390fd5b8160045f8a73ffffffffffffffffffffffffffffffffffffffff1673ffffffffffffffffffffffffffffffffffffffff1681526020019081526020015f205f015f82825461125191906120ed565b925050819055508060045f8973ffffffffffffffffffffffffffffffffffffffff1673ffffffffffffffffffffffffffffffffffffffff1681526020019081526020015f205f015f8282546112a691906120ed565b925050819055508773ffffffffffffffffffffffffffffffffffffffff1663a9059cbb33846040518363ffffffff1660e01b81526004016112e8929190612483565b6020604051808303815f875af1158015611304573d5f803e3d5ffd5b505050506040513d601f19601f820116820180604052508101906113289190612458565b508673ffffffffffffffffffffffffffffffffffffffff1663a9059cbb33836040518363ffffffff1660e01b8152600401611364929190612483565b6020604051808303815f875af1158015611380573d5f803e3d5ffd5b505050506040513d601f19601f820116820180604052508101906113a49190612458565b5060035f9054906101000a900473ffffffffffffffffffffffffffffffffffffffff1673ffffffffffffffffffffffffffffffffffffffff16639dc29fac33886040518363ffffffff1660e01b8152600401611401929190612483565b5f604051808303815f87803b158015611418575f80fd5b505af115801561142a573d5f803e3d5ffd5b505050505050505050505050565b60045f8473ffffffffffffffffffffffffffffffffffffffff1673ffffffffffffffffffffffffffffffffffffffff1681526020019081526020015f206001015f9054906101000a900460ff1680156114da575060045f8373ffffffffffffffffffffffffffffffffffffffff1673ffffffffffffffffffffffffffffffffffffffff1681526020019081526020015f206001015f9054906101000a900460ff165b611519576040517f08c379a0000000000000000000000000000000000000000000000000000000008152600401611510906126d3565b60405180910390fd5b5f811161155b576040517f08c379a00000000000000000000000000000000000000000000000000000000081526004016115529061203a565b60405180910390fd5b5f60045f8573ffffffffffffffffffffffffffffffffffffffff1673ffffffffffffffffffffffffffffffffffffffff1681526020019081526020015f2090505f60045f8573ffffffffffffffffffffffffffffffffffffffff1673ffffffffffffffffffffffffffffffffffffffff1681526020019081526020015f2090505f825f015490505f825f015490505f612710601e6127106115fc91906120ed565b876116079190612120565b611611919061218e565b90505f818461162091906121be565b838361162c9190612120565b611636919061218e565b90508281111561167b576040517f08c379a000000000000000000000000000000000000000000000000000000000815260040161167290612761565b60405180910390fd5b5f81116116bd576040517f08c379a00000000000000000000000000000000000000000000000000000000081526004016116b4906127c9565b60405180910390fd5b5f82886116ca91906120ed565b905080836116d891906121be565b875f015f8282546116e991906121be565b9250508190555081865f015f82825461170291906120ed565b925050819055508973ffffffffffffffffffffffffffffffffffffffff166323b872dd33308b6040518463ffffffff1660e01b8152600401611746939291906123f9565b6020604051808303815f875af1158015611762573d5f803e3d5ffd5b505050506040513d601f19601f820116820180604052508101906117869190612458565b508873ffffffffffffffffffffffffffffffffffffffff1663a9059cbb33846040518363ffffffff1660e01b81526004016117c2929190612483565b6020604051808303815f875af11580156117de573d5f803e3d5ffd5b505050506040513d601f19601f820116820180604052508101906118029190612458565b5050505050505050505050565b6118176118bf565b5f73ffffffffffffffffffffffffffffffffffffffff168173ffffffffffffffffffffffffffffffffffffffff1603611887575f6040517f1e4fbdf700000000000000000000000000000000000000000000000000000000815260040161187e9190611e2a565b60405180910390fd5b61189081611946565b50565b6004602052805f5260405f205f91509050805f015490806001015f9054906101000a900460ff16905082565b6118c7611b97565b73ffffffffffffffffffffffffffffffffffffffff166118e56107fa565b73ffffffffffffffffffffffffffffffffffffffff161461194457611908611b97565b6040517f118cdaa700000000000000000000000000000000000000000000000000000000815260040161193b9190611e2a565b60405180910390fd5b565b5f805f9054906101000a900473ffffffffffffffffffffffffffffffffffffffff169050815f806101000a81548173ffffffffffffffffffffffffffffffffffffffff021916908373ffffffffffffffffffffffffffffffffffffffff1602179055508173ffffffffffffffffffffffffffffffffffffffff168173ffffffffffffffffffffffffffffffffffffffff167f8be0079c531659141344cd1fd0a4f28419497f9722a3daafe3b4186f6b6457e060405160405180910390a35050565b5f8060035f9054906101000a900473ffffffffffffffffffffffffffffffffffffffff1673ffffffffffffffffffffffffffffffffffffffff166318160ddd6040518163ffffffff1660e01b8152600401602060405180830381865afa158015611a73573d5f803e3d5ffd5b505050506040513d601f19601f82011682018060405250810190611a979190612526565b90505f60045f8873ffffffffffffffffffffffffffffffffffffffff1673ffffffffffffffffffffffffffffffffffffffff1681526020019081526020015f205f015490505f60045f8873ffffffffffffffffffffffffffffffffffffffff1673ffffffffffffffffffffffffffffffffffffffff1681526020019081526020015f205f015490505f8303611b4457611b3a8587611b359190612120565b611b9e565b9350505050611b8f565b5f828488611b529190612120565b611b5c919061218e565b90505f828588611b6c9190612120565b611b76919061218e565b9050808210611b855780611b87565b815b955050505050505b949350505050565b5f33905090565b5f6003821115611c03578190505f6001600284611bbb919061218e565b611bc591906121be565b90505b81811015611bfd578091506002818285611be2919061218e565b611bec91906121be565b611bf6919061218e565b9050611bc8565b50611c10565b5f8214611c0f57600190505b5b919050565b5f73ffffffffffffffffffffffffffffffffffffffff82169050919050565b5f819050919050565b5f611c57611c52611c4d84611c15565b611c34565b611c15565b9050919050565b5f611c6882611c3d565b9050919050565b5f611c7982611c5e565b9050919050565b611c8981611c6f565b82525050565b5f602082019050611ca25f830184611c80565b92915050565b5f80fd5b5f819050919050565b611cbe81611cac565b8114611cc8575f80fd5b50565b5f81359050611cd981611cb5565b92915050565b5f611ce982611c15565b9050919050565b611cf981611cdf565b8114611d03575f80fd5b50565b5f81359050611d1481611cf0565b92915050565b5f805f60608486031215611d3157611d30611ca8565b5b5f611d3e86828701611ccb565b9350506020611d4f86828701611d06565b9250506040611d6086828701611d06565b9150509250925092565b611d7381611cac565b82525050565b5f602082019050611d8c5f830184611d6a565b92915050565b5f611d9c82611c5e565b9050919050565b611dac81611d92565b82525050565b5f602082019050611dc55f830184611da3565b92915050565b5f805f60608486031215611de257611de1611ca8565b5b5f611def86828701611d06565b9350506020611e0086828701611d06565b9250506040611e1186828701611ccb565b9150509250925092565b611e2481611cdf565b82525050565b5f602082019050611e3d5f830184611e1b565b92915050565b5f805f8060808587031215611e5b57611e5a611ca8565b5b5f611e6887828801611d06565b9450506020611e7987828801611d06565b9350506040611e8a87828801611ccb565b9250506060611e9b87828801611ccb565b91505092959194509250565b5f60208284031215611ebc57611ebb611ca8565b5b5f611ec984828501611d06565b91505092915050565b5f8060408385031215611ee857611ee7611ca8565b5b5f611ef585828601611d06565b9250506020611f0685828601611d06565b9150509250929050565b5f604082019050611f235f830185611d6a565b611f306020830184611d6a565b9392505050565b5f8115159050919050565b611f4b81611f37565b82525050565b5f604082019050611f645f830185611d6a565b611f716020830184611f42565b9392505050565b5f82825260208201905092915050565b7f546f6b656e206e6f7420737570706f72746564000000000000000000000000005f82015250565b5f611fbc601383611f78565b9150611fc782611f88565b602082019050919050565b5f6020820190508181035f830152611fe981611fb0565b9050919050565b7f496e76616c696420696e70757420616d6f756e740000000000000000000000005f82015250565b5f612024601483611f78565b915061202f82611ff0565b602082019050919050565b5f6020820190508181035f83015261205181612018565b9050919050565b7f496e73756666696369656e74206c6971756964697479000000000000000000005f82015250565b5f61208c601683611f78565b915061209782612058565b602082019050919050565b5f6020820190508181035f8301526120b981612080565b9050919050565b7f4e487b71000000000000000000000000000000000000000000000000000000005f52601160045260245ffd5b5f6120f782611cac565b915061210283611cac565b925082820390508181111561211a576121196120c0565b5b92915050565b5f61212a82611cac565b915061213583611cac565b925082820261214381611cac565b9150828204841483151761215a576121596120c0565b5b5092915050565b7f4e487b71000000000000000000000000000000000000000000000000000000005f52601260045260245ffd5b5f61219882611cac565b91506121a383611cac565b9250826121b3576121b2612161565b5b828204905092915050565b5f6121c882611cac565b91506121d383611cac565b92508282019050808211156121eb576121ea6120c0565b5b92915050565b7f4e6f206c697175696469747920666f7220746f6b656e204100000000000000005f82015250565b5f612225601883611f78565b9150612230826121f1565b602082019050919050565b5f6020820190508181035f83015261225281612219565b9050919050565b7f4e6f206c697175696469747920666f7220746f6b656e204200000000000000005f82015250565b5f61228d601883611f78565b915061229882612259565b602082019050919050565b5f6020820190508181035f8301526122ba81612281565b9050919050565b7f496e76616c696420746f6b656e20616d6f756e747300000000000000000000005f82015250565b5f6122f5601583611f78565b9150612300826122c1565b602082019050919050565b5f6020820190508181035f830152612322816122e9565b9050919050565b7f4f766572666c6f77207269736b20666f7220746f6b656e3100000000000000005f82015250565b5f61235d601883611f78565b915061236882612329565b602082019050919050565b5f6020820190508181035f83015261238a81612351565b9050919050565b7f4f766572666c6f77207269736b20666f7220746f6b656e3200000000000000005f82015250565b5f6123c5601883611f78565b91506123d082612391565b602082019050919050565b5f6020820190508181035f8301526123f2816123b9565b9050919050565b5f60608201905061240c5f830186611e1b565b6124196020830185611e1b565b6124266040830184611d6a565b949350505050565b61243781611f37565b8114612441575f80fd5b50565b5f815190506124528161242e565b92915050565b5f6020828403121561246d5761246c611ca8565b5b5f61247a84828501612444565b91505092915050565b5f6040820190506124965f830185611e1b565b6124a36020830184611d6a565b9392505050565b7f546f6b656e20616c7265616479206c69737465640000000000000000000000005f82015250565b5f6124de601483611f78565b91506124e9826124aa565b602082019050919050565b5f6020820190508181035f83015261250b816124d2565b9050919050565b5f8151905061252081611cb5565b92915050565b5f6020828403121561253b5761253a611ca8565b5b5f61254884828501612512565b91505092915050565b7f4e6f7420656e6f756768204c5020746f6b656e730000000000000000000000005f82015250565b5f612585601483611f78565b915061259082612551565b602082019050919050565b5f6020820190508181035f8301526125b281612579565b9050919050565b7f496e73756666696369656e7420726573657276654100000000000000000000005f82015250565b5f6125ed601583611f78565b91506125f8826125b9565b602082019050919050565b5f6020820190508181035f83015261261a816125e1565b9050919050565b7f496e73756666696369656e7420726573657276654200000000000000000000005f82015250565b5f612655601583611f78565b915061266082612621565b602082019050919050565b5f6020820190508181035f83015261268281612649565b9050919050565b7f4f6e65206f7220626f746820746f6b656e73206e6f7420737570706f727465645f82015250565b5f6126bd602083611f78565b91506126c882612689565b602082019050919050565b5f6020820190508181035f8301526126ea816126b1565b9050919050565b7f496e73756666696369656e74206c697175696469747920666f7220746f6b656e5f8201527f4f75740000000000000000000000000000000000000000000000000000000000602082015250565b5f61274b602383611f78565b9150612756826126f1565b604082019050919050565b5f6020820190508181035f8301526127788161273f565b9050919050565b7f496e76616c6964206f757470757420616d6f756e7400000000000000000000005f82015250565b5f6127b3601583611f78565b91506127be8261277f565b602082019050919050565b5f6020820190508181035f8301526127e0816127a7565b905091905056fea2646970667358221220537c442b8316e61d40989337b05cecee14d343ec2a664fc3adb67311826b3bbb64736f6c63430008150033",
  "immutableReferences": {},
  "source": "// SPDX-License-Identifier: MIT\r\npragma solidity ^0.8.0;\r\nimport \"@openzeppelin/contracts/token/ERC20/IERC20.sol\";\r\nimport \"@openzeppelin/contracts/access/Ownable.sol\";\r\nimport \"./LPToken.sol\";\r\ncontract DEX is Ownable {\r\n    IERC20 public tokenA;\r\n    IERC20 public tokenB;\r\n    LPToken public lpToken;\r\n    struct TokenInfo {\r\n        uint256 reserve; // \r\n        bool isListed; // \r\n    }\r\n    mapping(address => TokenInfo) public tokenInfo;\r\n    uint public constant FEE_DENOMINATOR = 10000;\r\n    uint public constant FEE = 30; // 0.3%\r\n\r\n    constructor(\r\n        address _tokenAAddress,\r\n        address _tokenBAddress,\r\n        address _lpTokenAddress\r\n    ) Ownable(msg.sender) {\r\n        tokenA = IERC20(_tokenAAddress);\r\n        tokenB = IERC20(_tokenBAddress);\r\n        lpToken = LPToken(_lpTokenAddress);\r\n    }\r\n\r\n    function addToken(address token) public onlyOwner {\r\n        require(!tokenInfo[token].isListed, \"Token already listed\");\r\n        tokenInfo[token] = TokenInfo(0, true);\r\n    }\r\n\r\n    // Liquidity\r\n\r\n    function addLiquidity(\r\n        address token1,\r\n        address token2,\r\n        uint256 amountA,\r\n        uint256 amountB\r\n    ) public {\r\n        require(\r\n            tokenInfo[token1].isListed && tokenInfo[token2].isListed,\r\n            \"Token not supported\"\r\n        );\r\n        require(amountA > 0 && amountB > 0, \"Invalid token amounts\");\r\n\r\n        // \r\n        require(\r\n            tokenInfo[token1].reserve + amountA > tokenInfo[token1].reserve,\r\n            \"Overflow risk for token1\"\r\n        );\r\n        require(\r\n            tokenInfo[token2].reserve + amountB > tokenInfo[token2].reserve,\r\n            \"Overflow risk for token2\"\r\n        );\r\n\r\n        IERC20(token1).transferFrom(msg.sender, address(this), amountA);\r\n        IERC20(token2).transferFrom(msg.sender, address(this), amountB);\r\n\r\n        tokenInfo[token1].reserve += amountA;\r\n        tokenInfo[token2].reserve += amountB;\r\n\r\n        // LP token\r\n        uint256 liquidity = calculateLiquidityTokens(\r\n            token1,\r\n            token2,\r\n            amountA,\r\n            amountB\r\n        );\r\n        lpToken.mint(msg.sender, liquidity);\r\n    }\r\n\r\n    function removeLiquidity(\r\n        address token1,\r\n        address token2,\r\n        uint256 lpTokenAmount\r\n    ) public {\r\n        require(\r\n            lpToken.balanceOf(msg.sender) >= lpTokenAmount,\r\n            \"Not enough LP tokens\"\r\n        );\r\n\r\n        uint256 totalLpSupply = lpToken.totalSupply();\r\n        uint256 reserveA = tokenInfo[token1].reserve;\r\n        uint256 reserveB = tokenInfo[token2].reserve;\r\n\r\n        // token1token2\r\n        uint256 amountA = (lpTokenAmount * reserveA) / totalLpSupply;\r\n        uint256 amountB = (lpTokenAmount * reserveB) / totalLpSupply;\r\n\r\n        require(tokenInfo[token1].reserve >= amountA, \"Insufficient reserveA\");\r\n        require(tokenInfo[token2].reserve >= amountB, \"Insufficient reserveB\");\r\n        // \r\n        tokenInfo[token1].reserve -= amountA;\r\n        tokenInfo[token2].reserve -= amountB;\r\n\r\n        // \r\n        IERC20(token1).transfer(msg.sender, amountA);\r\n        IERC20(token2).transfer(msg.sender, amountB);\r\n\r\n        // LP\r\n        lpToken.burn(msg.sender, lpTokenAmount);\r\n    }\r\n\r\n    function calculateLiquidityToAdd(\r\n        address token1,\r\n        address token2,\r\n        uint amountA\r\n    ) public view returns (uint amountB) {\r\n        require(\r\n            tokenInfo[token1].isListed && tokenInfo[token2].isListed,\r\n            \"Token not supported\"\r\n        );\r\n        uint reserveA = tokenInfo[token1].reserve;\r\n        uint reserveB = tokenInfo[token2].reserve;\r\n        require(reserveA > 0, \"No liquidity for token A\");\r\n        require(reserveB > 0, \"No liquidity for token B\");\r\n        amountB = (reserveB * amountA) / reserveA;\r\n    }\r\n\r\n    function calculateLiquidityTokens(\r\n        address token1,\r\n        address token2,\r\n        uint256 amountA,\r\n        uint256 amountB\r\n    ) internal view returns (uint256) {\r\n        uint totalSupply = lpToken.totalSupply();\r\n        uint reserveA = tokenInfo[token1].reserve;\r\n        uint reserveB = tokenInfo[token2].reserve;\r\n\r\n        if (totalSupply == 0) {\r\n            return sqrt(amountA * amountB);\r\n        } else {\r\n            uint liquidityA = (amountA * totalSupply) / reserveA;\r\n            uint liquidityB = (amountB * totalSupply) / reserveB;\r\n            return (liquidityA < liquidityB) ? liquidityA : liquidityB;\r\n        }\r\n    }\r\n\r\n    function getReserves(\r\n        address token1,\r\n        address token2\r\n    ) public view returns (uint256 reserveA, uint256 reserveB) {\r\n        return (tokenInfo[token1].reserve, tokenInfo[token2].reserve);\r\n    }\r\n\r\n    // utils\r\n    function sqrt(uint y) internal pure returns (uint z) {\r\n        if (y > 3) {\r\n            z = y;\r\n            uint x = y / 2 + 1;\r\n            while (x < z) {\r\n                z = x;\r\n                x = (y / x + x) / 2;\r\n            }\r\n        } else if (y != 0) {\r\n            z = 1;\r\n        }\r\n    }\r\n\r\n    // swap\r\n    function swap(address tokenIn, address tokenOut, uint256 amountIn) public {\r\n        require(\r\n            tokenInfo[tokenIn].isListed && tokenInfo[tokenOut].isListed,\r\n            \"One or both tokens not supported\"\r\n        );\r\n        // \r\n        require(amountIn > 0, \"Invalid input amount\");\r\n\r\n        TokenInfo storage inInfo = tokenInfo[tokenIn];\r\n        TokenInfo storage outInfo = tokenInfo[tokenOut];\r\n\r\n        uint256 inBalance = inInfo.reserve;\r\n        uint256 outBalance = outInfo.reserve;\r\n\r\n        uint256 amountInWithFee = (amountIn * (FEE_DENOMINATOR - FEE)) /\r\n            FEE_DENOMINATOR;\r\n        uint256 amountOut = (amountInWithFee * outBalance) /\r\n            (inBalance + amountInWithFee);\r\n\r\n        //  amountOut\r\n        require(amountOut <= outBalance, \"Insufficient liquidity for tokenOut\");\r\n\r\n        //  amountOut \r\n        require(amountOut > 0, \"Invalid output amount\");\r\n\r\n        uint256 fee = amountIn - amountInWithFee;\r\n        inInfo.reserve += amountInWithFee + fee;\r\n        outInfo.reserve -= amountOut;\r\n\r\n        IERC20(tokenIn).transferFrom(msg.sender, address(this), amountIn);\r\n        IERC20(tokenOut).transfer(msg.sender, amountOut);\r\n    }\r\n\r\n    function getAmountOut(\r\n        uint amountIn,\r\n        address tokenIn,\r\n        address tokenOut\r\n    ) public view returns (uint amountOut) {\r\n        require(\r\n            tokenInfo[tokenIn].isListed && tokenInfo[tokenOut].isListed,\r\n            \"Token not supported\"\r\n        );\r\n\r\n        uint reserveIn = tokenInfo[tokenIn].reserve;\r\n        uint reserveOut = tokenInfo[tokenOut].reserve;\r\n\r\n        require(amountIn > 0, \"Invalid input amount\");\r\n        require(reserveIn > 0 && reserveOut > 0, \"Insufficient liquidity\");\r\n\r\n        // \r\n        uint256 amountInWithFee = (amountIn * (FEE_DENOMINATOR - FEE)) /\r\n            FEE_DENOMINATOR;\r\n        amountOut =\r\n            (amountInWithFee * reserveOut) /\r\n            (reserveIn * FEE_DENOMINATOR + amountInWithFee);\r\n    }\r\n}\r\n",
  "sourcePath": "D:\\Code\\simple_dex\\contracts\\Dex.sol",
  "compiler": {
    "name": "solc",
    "version": "0.8.21+commit.d9974bed.Emscripten.clang"
  },
  "schemaVersion": "3.4.16",
  "updatedAt": "2024-08-15T09:07:57.496Z",
  "networkType": "ethereum",
  "devdoc": {
    "errors": {
      "OwnableInvalidOwner(address)": [
        {
          "details": "The owner is not a valid owner account. (eg. `address(0)`)"
        }
      ],
      "OwnableUnauthorizedAccount(address)": [
        {
          "details": "The caller account is not authorized to perform an operation."
        }
      ]
    },
    "kind": "dev",
    "methods": {
      "owner()": {
        "details": "Returns the address of the current owner."
      },
      "renounceOwnership()": {
        "details": "Leaves the contract without owner. It will not be possible to call `onlyOwner` functions. Can only be called by the current owner. NOTE: Renouncing ownership will leave the contract without an owner, thereby disabling any functionality that is only available to the owner."
      },
      "transferOwnership(address)": {
        "details": "Transfers ownership of the contract to a new account (`newOwner`). Can only be called by the current owner."
      }
    },
    "version": 1
  },
  "userdoc": {
    "kind": "user",
    "methods": {},
    "version": 1
  }
}