{
  "contractName": "TokenA",
  "abi": [
    {
      "inputs": [
        {
          "internalType": "address",
          "name": "_priceFeedAddress",
          "type": "address"
        },
        {
          "internalType": "uint256",
          "name": "initialSupply",
          "type": "uint256"
        }
      ],
      "stateMutability": "nonpayable",
      "type": "constructor"
    },
    {
      "inputs": [
        {
          "internalType": "address",
          "name": "spender",
          "type": "address"
        },
        {
          "internalType": "uint256",
          "name": "allowance",
          "type": "uint256"
        },
        {
          "internalType": "uint256",
          "name": "needed",
          "type": "uint256"
        }
      ],
      "name": "ERC20InsufficientAllowance",
      "type": "error"
    },
    {
      "inputs": [
        {
          "internalType": "address",
          "name": "sender",
          "type": "address"
        },
        {
          "internalType": "uint256",
          "name": "balance",
          "type": "uint256"
        },
        {
          "internalType": "uint256",
          "name": "needed",
          "type": "uint256"
        }
      ],
      "name": "ERC20InsufficientBalance",
      "type": "error"
    },
    {
      "inputs": [
        {
          "internalType": "address",
          "name": "approver",
          "type": "address"
        }
      ],
      "name": "ERC20InvalidApprover",
      "type": "error"
    },
    {
      "inputs": [
        {
          "internalType": "address",
          "name": "receiver",
          "type": "address"
        }
      ],
      "name": "ERC20InvalidReceiver",
      "type": "error"
    },
    {
      "inputs": [
        {
          "internalType": "address",
          "name": "sender",
          "type": "address"
        }
      ],
      "name": "ERC20InvalidSender",
      "type": "error"
    },
    {
      "inputs": [
        {
          "internalType": "address",
          "name": "spender",
          "type": "address"
        }
      ],
      "name": "ERC20InvalidSpender",
      "type": "error"
    },
    {
      "inputs": [
        {
          "internalType": "address",
          "name": "owner",
          "type": "address"
        }
      ],
      "name": "OwnableInvalidOwner",
      "type": "error"
    },
    {
      "inputs": [
        {
          "internalType": "address",
          "name": "account",
          "type": "address"
        }
      ],
      "name": "OwnableUnauthorizedAccount",
      "type": "error"
    },
    {
      "anonymous": false,
      "inputs": [
        {
          "indexed": true,
          "internalType": "address",
          "name": "owner",
          "type": "address"
        },
        {
          "indexed": true,
          "internalType": "address",
          "name": "spender",
          "type": "address"
        },
        {
          "indexed": false,
          "internalType": "uint256",
          "name": "value",
          "type": "uint256"
        }
      ],
      "name": "Approval",
      "type": "event"
    },
    {
      "anonymous": false,
      "inputs": [
        {
          "indexed": true,
          "internalType": "address",
          "name": "previousOwner",
          "type": "address"
        },
        {
          "indexed": true,
          "internalType": "address",
          "name": "newOwner",
          "type": "address"
        }
      ],
      "name": "OwnershipTransferred",
      "type": "event"
    },
    {
      "anonymous": false,
      "inputs": [
        {
          "indexed": true,
          "internalType": "address",
          "name": "from",
          "type": "address"
        },
        {
          "indexed": true,
          "internalType": "address",
          "name": "to",
          "type": "address"
        },
        {
          "indexed": false,
          "internalType": "uint256",
          "name": "value",
          "type": "uint256"
        }
      ],
      "name": "Transfer",
      "type": "event"
    },
    {
      "inputs": [
        {
          "internalType": "address",
          "name": "owner",
          "type": "address"
        },
        {
          "internalType": "address",
          "name": "spender",
          "type": "address"
        }
      ],
      "name": "allowance",
      "outputs": [
        {
          "internalType": "uint256",
          "name": "",
          "type": "uint256"
        }
      ],
      "stateMutability": "view",
      "type": "function",
      "constant": true
    },
    {
      "inputs": [
        {
          "internalType": "address",
          "name": "spender",
          "type": "address"
        },
        {
          "internalType": "uint256",
          "name": "value",
          "type": "uint256"
        }
      ],
      "name": "approve",
      "outputs": [
        {
          "internalType": "bool",
          "name": "",
          "type": "bool"
        }
      ],
      "stateMutability": "nonpayable",
      "type": "function"
    },
    {
      "inputs": [
        {
          "internalType": "address",
          "name": "account",
          "type": "address"
        }
      ],
      "name": "balanceOf",
      "outputs": [
        {
          "internalType": "uint256",
          "name": "",
          "type": "uint256"
        }
      ],
      "stateMutability": "view",
      "type": "function",
      "constant": true
    },
    {
      "inputs": [],
      "name": "decimals",
      "outputs": [
        {
          "internalType": "uint8",
          "name": "",
          "type": "uint8"
        }
      ],
      "stateMutability": "view",
      "type": "function",
      "constant": true
    },
    {
      "inputs": [],
      "name": "name",
      "outputs": [
        {
          "internalType": "string",
          "name": "",
          "type": "string"
        }
      ],
      "stateMutability": "view",
      "type": "function",
      "constant": true
    },
    {
      "inputs": [],
      "name": "owner",
      "outputs": [
        {
          "internalType": "address",
          "name": "",
          "type": "address"
        }
      ],
      "stateMutability": "view",
      "type": "function",
      "constant": true
    },
    {
      "inputs": [],
      "name": "priceFeed",
      "outputs": [
        {
          "internalType": "contract MockPriceFeed",
          "name": "",
          "type": "address"
        }
      ],
      "stateMutability": "view",
      "type": "function",
      "constant": true
    },
    {
      "inputs": [],
      "name": "renounceOwnership",
      "outputs": [],
      "stateMutability": "nonpayable",
      "type": "function"
    },
    {
      "inputs": [],
      "name": "symbol",
      "outputs": [
        {
          "internalType": "string",
          "name": "",
          "type": "string"
        }
      ],
      "stateMutability": "view",
      "type": "function",
      "constant": true
    },
    {
      "inputs": [],
      "name": "totalSupply",
      "outputs": [
        {
          "internalType": "uint256",
          "name": "",
          "type": "uint256"
        }
      ],
      "stateMutability": "view",
      "type": "function",
      "constant": true
    },
    {
      "inputs": [
        {
          "internalType": "address",
          "name": "to",
          "type": "address"
        },
        {
          "internalType": "uint256",
          "name": "value",
          "type": "uint256"
        }
      ],
      "name": "transfer",
      "outputs": [
        {
          "internalType": "bool",
          "name": "",
          "type": "bool"
        }
      ],
      "stateMutability": "nonpayable",
      "type": "function"
    },
    {
      "inputs": [
        {
          "internalType": "address",
          "name": "from",
          "type": "address"
        },
        {
          "internalType": "address",
          "name": "to",
          "type": "address"
        },
        {
          "internalType": "uint256",
          "name": "value",
          "type": "uint256"
        }
      ],
      "name": "transferFrom",
      "outputs": [
        {
          "internalType": "bool",
          "name": "",
          "type": "bool"
        }
      ],
      "stateMutability": "nonpayable",
      "type": "function"
    },
    {
      "inputs": [
        {
          "internalType": "address",
          "name": "newOwner",
          "type": "address"
        }
      ],
      "name": "transferOwnership",
      "outputs": [],
      "stateMutability": "nonpayable",
      "type": "function"
    },
    {
      "inputs": [
        {
          "internalType": "address",
          "name": "to",
          "type": "address"
        },
        {
          "internalType": "uint256",
          "name": "amount",
          "type": "uint256"
        }
      ],
      "name": "mint",
      "outputs": [],
      "stateMutability": "nonpayable",
      "type": "function"
    },
    {
      "inputs": [],
      "name": "getPrice",
      "outputs": [
        {
          "internalType": "uint256",
          "name": "",
          "type": "uint256"
        }
      ],
      "stateMutability": "view",
      "type": "function",
      "constant": true
    }
  ],
  "bytecode": "0x608060405234801562000010575f80fd5b5060405162001f6438038062001f648339818101604052810190620000369190620005eb565b336040518060400160405280600681526020017f546f6b656e4100000000000000000000000000000000000000000000000000008152506040518060400160405280600381526020017f544b4100000000000000000000000000000000000000000000000000000000008152508160039081620000b491906200088b565b508060049081620000c691906200088b565b5050505f73ffffffffffffffffffffffffffffffffffffffff168173ffffffffffffffffffffffffffffffffffffffff16036200013c575f6040517f1e4fbdf700000000000000000000000000000000000000000000000000000000815260040162000133919062000980565b60405180910390fd5b6200014d81620001d560201b60201c565b508160065f6101000a81548173ffffffffffffffffffffffffffffffffffffffff021916908373ffffffffffffffffffffffffffffffffffffffff160217905550620001cd33620001a36200029860201b60201c565b60ff16600a620001b4919062000b18565b83620001c1919062000b68565b620002a060201b60201c565b505062000c53565b5f60055f9054906101000a900473ffffffffffffffffffffffffffffffffffffffff1690508160055f6101000a81548173ffffffffffffffffffffffffffffffffffffffff021916908373ffffffffffffffffffffffffffffffffffffffff1602179055508173ffffffffffffffffffffffffffffffffffffffff168173ffffffffffffffffffffffffffffffffffffffff167f8be0079c531659141344cd1fd0a4f28419497f9722a3daafe3b4186f6b6457e060405160405180910390a35050565b5f6012905090565b5f73ffffffffffffffffffffffffffffffffffffffff168273ffffffffffffffffffffffffffffffffffffffff160362000313575f6040517fec442f050000000000000000000000000000000000000000000000000000000081526004016200030a919062000980565b60405180910390fd5b620003265f83836200032a60201b60201c565b5050565b5f73ffffffffffffffffffffffffffffffffffffffff168373ffffffffffffffffffffffffffffffffffffffff16036200037e578060025f82825462000371919062000bb2565b925050819055506200044f565b5f805f8573ffffffffffffffffffffffffffffffffffffffff1673ffffffffffffffffffffffffffffffffffffffff1681526020019081526020015f20549050818110156200040a578381836040517fe450d38c000000000000000000000000000000000000000000000000000000008152600401620004019392919062000bfd565b60405180910390fd5b8181035f808673ffffffffffffffffffffffffffffffffffffffff1673ffffffffffffffffffffffffffffffffffffffff1681526020019081526020015f2081905550505b5f73ffffffffffffffffffffffffffffffffffffffff168273ffffffffffffffffffffffffffffffffffffffff160362000498578060025f8282540392505081905550620004e2565b805f808473ffffffffffffffffffffffffffffffffffffffff1673ffffffffffffffffffffffffffffffffffffffff1681526020019081526020015f205f82825401925050819055505b8173ffffffffffffffffffffffffffffffffffffffff168373ffffffffffffffffffffffffffffffffffffffff167fddf252ad1be2c89b69c2b068fc378daa952ba7f163c4a11628f55a4df523b3ef8360405162000541919062000c38565b60405180910390a3505050565b5f80fd5b5f73ffffffffffffffffffffffffffffffffffffffff82169050919050565b5f6200057d8262000552565b9050919050565b6200058f8162000571565b81146200059a575f80fd5b50565b5f81519050620005ad8162000584565b92915050565b5f819050919050565b620005c781620005b3565b8114620005d2575f80fd5b50565b5f81519050620005e581620005bc565b92915050565b5f80604083850312156200060457620006036200054e565b5b5f62000613858286016200059d565b92505060206200062685828601620005d5565b9150509250929050565b5f81519050919050565b7f4e487b71000000000000000000000000000000000000000000000000000000005f52604160045260245ffd5b7f4e487b71000000000000000000000000000000000000000000000000000000005f52602260045260245ffd5b5f6002820490506001821680620006ac57607f821691505b602082108103620006c257620006c162000667565b5b50919050565b5f819050815f5260205f209050919050565b5f6020601f8301049050919050565b5f82821b905092915050565b5f60088302620007267fffffffffffffffffffffffffffffffffffffffffffffffffffffffffffffffff82620006e9565b620007328683620006e9565b95508019841693508086168417925050509392505050565b5f819050919050565b5f620007736200076d6200076784620005b3565b6200074a565b620005b3565b9050919050565b5f819050919050565b6200078e8362000753565b620007a66200079d826200077a565b848454620006f5565b825550505050565b5f90565b620007bc620007ae565b620007c981848462000783565b505050565b5b81811015620007f057620007e45f82620007b2565b600181019050620007cf565b5050565b601f8211156200083f576200080981620006c8565b6200081484620006da565b8101602085101562000824578190505b6200083c6200083385620006da565b830182620007ce565b50505b505050565b5f82821c905092915050565b5f620008615f198460080262000844565b1980831691505092915050565b5f6200087b838362000850565b9150826002028217905092915050565b620008968262000630565b67ffffffffffffffff811115620008b257620008b16200063a565b5b620008be825462000694565b620008cb828285620007f4565b5f60209050601f83116001811462000901575f8415620008ec578287015190505b620008f885826200086e565b86555062000967565b601f1984166200091186620006c8565b5f5b828110156200093a5784890151825560018201915060208501945060208101905062000913565b868310156200095a578489015162000956601f89168262000850565b8355505b6001600288020188555050505b505050505050565b6200097a8162000571565b82525050565b5f602082019050620009955f8301846200096f565b92915050565b7f4e487b71000000000000000000000000000000000000000000000000000000005f52601160045260245ffd5b5f8160011c9050919050565b5f808291508390505b600185111562000a2557808604811115620009fd57620009fc6200099b565b5b600185161562000a0d5780820291505b808102905062000a1d85620009c8565b9450620009dd565b94509492505050565b5f8262000a3f576001905062000b11565b8162000a4e575f905062000b11565b816001811462000a67576002811462000a725762000aa8565b600191505062000b11565b60ff84111562000a875762000a866200099b565b5b8360020a91508482111562000aa15762000aa06200099b565b5b5062000b11565b5060208310610133831016604e8410600b841016171562000ae25782820a90508381111562000adc5762000adb6200099b565b5b62000b11565b62000af18484846001620009d4565b9250905081840481111562000b0b5762000b0a6200099b565b5b81810290505b9392505050565b5f62000b2482620005b3565b915062000b3183620005b3565b925062000b607fffffffffffffffffffffffffffffffffffffffffffffffffffffffffffffffff848462000a2e565b905092915050565b5f62000b7482620005b3565b915062000b8183620005b3565b925082820262000b9181620005b3565b9150828204841483151762000bab5762000baa6200099b565b5b5092915050565b5f62000bbe82620005b3565b915062000bcb83620005b3565b925082820190508082111562000be65762000be56200099b565b5b92915050565b62000bf781620005b3565b82525050565b5f60608201905062000c125f8301866200096f565b62000c21602083018562000bec565b62000c30604083018462000bec565b949350505050565b5f60208201905062000c4d5f83018462000bec565b92915050565b6113038062000c615f395ff3fe608060405234801561000f575f80fd5b50600436106100f3575f3560e01c8063715018a61161009557806398d5fdca1161006457806398d5fdca14610261578063a9059cbb1461027f578063dd62ed3e146102af578063f2fde38b146102df576100f3565b8063715018a6146101fd578063741bef1a146102075780638da5cb5b1461022557806395d89b4114610243576100f3565b806323b872dd116100d157806323b872dd14610163578063313ce5671461019357806340c10f19146101b157806370a08231146101cd576100f3565b806306fdde03146100f7578063095ea7b31461011557806318160ddd14610145575b5f80fd5b6100ff6102fb565b60405161010c9190610ec9565b60405180910390f35b61012f600480360381019061012a9190610f7a565b61038b565b60405161013c9190610fd2565b60405180910390f35b61014d6103ad565b60405161015a9190610ffa565b60405180910390f35b61017d60048036038101906101789190611013565b6103b6565b60405161018a9190610fd2565b60405180910390f35b61019b6103e4565b6040516101a8919061107e565b60405180910390f35b6101cb60048036038101906101c69190610f7a565b6103ec565b005b6101e760048036038101906101e29190611097565b610402565b6040516101f49190610ffa565b60405180910390f35b610205610447565b005b61020f61045a565b60405161021c919061111d565b60405180910390f35b61022d61047f565b60405161023a9190611145565b60405180910390f35b61024b6104a7565b6040516102589190610ec9565b60405180910390f35b610269610537565b6040516102769190610ffa565b60405180910390f35b61029960048036038101906102949190610f7a565b6105cb565b6040516102a69190610fd2565b60405180910390f35b6102c960048036038101906102c4919061115e565b6105ed565b6040516102d69190610ffa565b60405180910390f35b6102f960048036038101906102f49190611097565b61066f565b005b60606003805461030a906111c9565b80601f0160208091040260200160405190810160405280929190818152602001828054610336906111c9565b80156103815780601f1061035857610100808354040283529160200191610381565b820191905f5260205f20905b81548152906001019060200180831161036457829003601f168201915b5050505050905090565b5f806103956106f3565b90506103a28185856106fa565b600191505092915050565b5f600254905090565b5f806103c06106f3565b90506103cd85828561070c565b6103d885858561079e565b60019150509392505050565b5f6012905090565b6103f461088e565b6103fe8282610915565b5050565b5f805f8373ffffffffffffffffffffffffffffffffffffffff1673ffffffffffffffffffffffffffffffffffffffff1681526020019081526020015f20549050919050565b61044f61088e565b6104585f610994565b565b60065f9054906101000a900473ffffffffffffffffffffffffffffffffffffffff1681565b5f60055f9054906101000a900473ffffffffffffffffffffffffffffffffffffffff16905090565b6060600480546104b6906111c9565b80601f01602080910402602001604051908101604052809291908181526020018280546104e2906111c9565b801561052d5780601f106105045761010080835404028352916020019161052d565b820191905f5260205f20905b81548152906001019060200180831161051057829003601f168201915b5050505050905090565b5f60065f9054906101000a900473ffffffffffffffffffffffffffffffffffffffff1673ffffffffffffffffffffffffffffffffffffffff166398d5fdca6040518163ffffffff1660e01b8152600401602060405180830381865afa1580156105a2573d5f803e3d5ffd5b505050506040513d601f19601f820116820180604052508101906105c6919061120d565b905090565b5f806105d56106f3565b90506105e281858561079e565b600191505092915050565b5f60015f8473ffffffffffffffffffffffffffffffffffffffff1673ffffffffffffffffffffffffffffffffffffffff1681526020019081526020015f205f8373ffffffffffffffffffffffffffffffffffffffff1673ffffffffffffffffffffffffffffffffffffffff1681526020019081526020015f2054905092915050565b61067761088e565b5f73ffffffffffffffffffffffffffffffffffffffff168173ffffffffffffffffffffffffffffffffffffffff16036106e7575f6040517f1e4fbdf70000000000000000000000000000000000000000000000000000000081526004016106de9190611145565b60405180910390fd5b6106f081610994565b50565b5f33905090565b6107078383836001610a57565b505050565b5f61071784846105ed565b90507fffffffffffffffffffffffffffffffffffffffffffffffffffffffffffffffff81146107985781811015610789578281836040517ffb8f41b200000000000000000000000000000000000000000000000000000000815260040161078093929190611238565b60405180910390fd5b61079784848484035f610a57565b5b50505050565b5f73ffffffffffffffffffffffffffffffffffffffff168373ffffffffffffffffffffffffffffffffffffffff160361080e575f6040517f96c6fd1e0000000000000000000000000000000000000000000000000000000081526004016108059190611145565b60405180910390fd5b5f73ffffffffffffffffffffffffffffffffffffffff168273ffffffffffffffffffffffffffffffffffffffff160361087e575f6040517fec442f050000000000000000000000000000000000000000000000000000000081526004016108759190611145565b60405180910390fd5b610889838383610c26565b505050565b6108966106f3565b73ffffffffffffffffffffffffffffffffffffffff166108b461047f565b73ffffffffffffffffffffffffffffffffffffffff1614610913576108d76106f3565b6040517f118cdaa700000000000000000000000000000000000000000000000000000000815260040161090a9190611145565b60405180910390fd5b565b5f73ffffffffffffffffffffffffffffffffffffffff168273ffffffffffffffffffffffffffffffffffffffff1603610985575f6040517fec442f0500000000000000000000000000000000000000000000000000000000815260040161097c9190611145565b60405180910390fd5b6109905f8383610c26565b5050565b5f60055f9054906101000a900473ffffffffffffffffffffffffffffffffffffffff1690508160055f6101000a81548173ffffffffffffffffffffffffffffffffffffffff021916908373ffffffffffffffffffffffffffffffffffffffff1602179055508173ffffffffffffffffffffffffffffffffffffffff168173ffffffffffffffffffffffffffffffffffffffff167f8be0079c531659141344cd1fd0a4f28419497f9722a3daafe3b4186f6b6457e060405160405180910390a35050565b5f73ffffffffffffffffffffffffffffffffffffffff168473ffffffffffffffffffffffffffffffffffffffff1603610ac7575f6040517fe602df05000000000000000000000000000000000000000000000000000000008152600401610abe9190611145565b60405180910390fd5b5f73ffffffffffffffffffffffffffffffffffffffff168373ffffffffffffffffffffffffffffffffffffffff1603610b37575f6040517f94280d62000000000000000000000000000000000000000000000000000000008152600401610b2e9190611145565b60405180910390fd5b8160015f8673ffffffffffffffffffffffffffffffffffffffff1673ffffffffffffffffffffffffffffffffffffffff1681526020019081526020015f205f8573ffffffffffffffffffffffffffffffffffffffff1673ffffffffffffffffffffffffffffffffffffffff1681526020019081526020015f20819055508015610c20578273ffffffffffffffffffffffffffffffffffffffff168473ffffffffffffffffffffffffffffffffffffffff167f8c5be1e5ebec7d5bd14f71427d1e84f3dd0314c0f7b2291e5b200ac8c7c3b92584604051610c179190610ffa565b60405180910390a35b50505050565b5f73ffffffffffffffffffffffffffffffffffffffff168373ffffffffffffffffffffffffffffffffffffffff1603610c76578060025f828254610c6a919061129a565b92505081905550610d44565b5f805f8573ffffffffffffffffffffffffffffffffffffffff1673ffffffffffffffffffffffffffffffffffffffff1681526020019081526020015f2054905081811015610cff578381836040517fe450d38c000000000000000000000000000000000000000000000000000000008152600401610cf693929190611238565b60405180910390fd5b8181035f808673ffffffffffffffffffffffffffffffffffffffff1673ffffffffffffffffffffffffffffffffffffffff1681526020019081526020015f2081905550505b5f73ffffffffffffffffffffffffffffffffffffffff168273ffffffffffffffffffffffffffffffffffffffff1603610d8b578060025f8282540392505081905550610dd5565b805f808473ffffffffffffffffffffffffffffffffffffffff1673ffffffffffffffffffffffffffffffffffffffff1681526020019081526020015f205f82825401925050819055505b8173ffffffffffffffffffffffffffffffffffffffff168373ffffffffffffffffffffffffffffffffffffffff167fddf252ad1be2c89b69c2b068fc378daa952ba7f163c4a11628f55a4df523b3ef83604051610e329190610ffa565b60405180910390a3505050565b5f81519050919050565b5f82825260208201905092915050565b5f5b83811015610e76578082015181840152602081019050610e5b565b5f8484015250505050565b5f601f19601f8301169050919050565b5f610e9b82610e3f565b610ea58185610e49565b9350610eb5818560208601610e59565b610ebe81610e81565b840191505092915050565b5f6020820190508181035f830152610ee18184610e91565b905092915050565b5f80fd5b5f73ffffffffffffffffffffffffffffffffffffffff82169050919050565b5f610f1682610eed565b9050919050565b610f2681610f0c565b8114610f30575f80fd5b50565b5f81359050610f4181610f1d565b92915050565b5f819050919050565b610f5981610f47565b8114610f63575f80fd5b50565b5f81359050610f7481610f50565b92915050565b5f8060408385031215610f9057610f8f610ee9565b5b5f610f9d85828601610f33565b9250506020610fae85828601610f66565b9150509250929050565b5f8115159050919050565b610fcc81610fb8565b82525050565b5f602082019050610fe55f830184610fc3565b92915050565b610ff481610f47565b82525050565b5f60208201905061100d5f830184610feb565b92915050565b5f805f6060848603121561102a57611029610ee9565b5b5f61103786828701610f33565b935050602061104886828701610f33565b925050604061105986828701610f66565b9150509250925092565b5f60ff82169050919050565b61107881611063565b82525050565b5f6020820190506110915f83018461106f565b92915050565b5f602082840312156110ac576110ab610ee9565b5b5f6110b984828501610f33565b91505092915050565b5f819050919050565b5f6110e56110e06110db84610eed565b6110c2565b610eed565b9050919050565b5f6110f6826110cb565b9050919050565b5f611107826110ec565b9050919050565b611117816110fd565b82525050565b5f6020820190506111305f83018461110e565b92915050565b61113f81610f0c565b82525050565b5f6020820190506111585f830184611136565b92915050565b5f806040838503121561117457611173610ee9565b5b5f61118185828601610f33565b925050602061119285828601610f33565b9150509250929050565b7f4e487b71000000000000000000000000000000000000000000000000000000005f52602260045260245ffd5b5f60028204905060018216806111e057607f821691505b6020821081036111f3576111f261119c565b5b50919050565b5f8151905061120781610f50565b92915050565b5f6020828403121561122257611221610ee9565b5b5f61122f848285016111f9565b91505092915050565b5f60608201905061124b5f830186611136565b6112586020830185610feb565b6112656040830184610feb565b949350505050565b7f4e487b71000000000000000000000000000000000000000000000000000000005f52601160045260245ffd5b5f6112a482610f47565b91506112af83610f47565b92508282019050808211156112c7576112c661126d565b5b9291505056fea26469706673582212201ec462494b1459a8b3f87410b8f69d76a345efd473c41656d8e75f8417c58cc364736f6c63430008150033",
  "immutableReferences": {},
  "source": "// SPDX-License-Identifier: MIT\r\npragma solidity ^0.8.0;\r\n\r\nimport \"@openzeppelin/contracts/token/ERC20/ERC20.sol\";\r\nimport \"@openzeppelin/contracts/access/Ownable.sol\";\r\nimport \"./MockPriceFeed.sol\";\r\n\r\ncontract TokenA is ERC20, Ownable {\r\n    MockPriceFeed public priceFeed;\r\n    constructor(\r\n        address _priceFeedAddress,\r\n        uint256 initialSupply\r\n    ) ERC20(\"TokenA\", \"TKA\") Ownable(msg.sender) {\r\n        priceFeed = MockPriceFeed(_priceFeedAddress);\r\n        _mint(msg.sender, initialSupply * (10 ** uint256(decimals())));\r\n    }\r\n    function mint(address to, uint256 amount) public onlyOwner {\r\n        _mint(to, amount);\r\n    }\r\n    function getPrice() public view returns (uint) {\r\n        return priceFeed.getPrice();\r\n    }\r\n}\r\n",
  "sourcePath": "D:\\Code\\simple_dex\\contracts\\TokenA.sol",
  "compiler": {
    "name": "solc",
    "version": "0.8.21+commit.d9974bed.Emscripten.clang"
  },
  "schemaVersion": "3.4.16",
  "updatedAt": "2024-08-14T10:09:05.929Z",
  "networkType": "ethereum",
  "devdoc": {
    "errors": {
      "ERC20InsufficientAllowance(address,uint256,uint256)": [
        {
          "details": "Indicates a failure with the `spender`s `allowance`. Used in transfers.",
          "params": {
            "allowance": "Amount of tokens a `spender` is allowed to operate with.",
            "needed": "Minimum amount required to perform a transfer.",
            "spender": "Address that may be allowed to operate on tokens without being their owner."
          }
        }
      ],
      "ERC20InsufficientBalance(address,uint256,uint256)": [
        {
          "details": "Indicates an error related to the current `balance` of a `sender`. Used in transfers.",
          "params": {
            "balance": "Current balance for the interacting account.",
            "needed": "Minimum amount required to perform a transfer.",
            "sender": "Address whose tokens are being transferred."
          }
        }
      ],
      "ERC20InvalidApprover(address)": [
        {
          "details": "Indicates a failure with the `approver` of a token to be approved. Used in approvals.",
          "params": {
            "approver": "Address initiating an approval operation."
          }
        }
      ],
      "ERC20InvalidReceiver(address)": [
        {
          "details": "Indicates a failure with the token `receiver`. Used in transfers.",
          "params": {
            "receiver": "Address to which tokens are being transferred."
          }
        }
      ],
      "ERC20InvalidSender(address)": [
        {
          "details": "Indicates a failure with the token `sender`. Used in transfers.",
          "params": {
            "sender": "Address whose tokens are being transferred."
          }
        }
      ],
      "ERC20InvalidSpender(address)": [
        {
          "details": "Indicates a failure with the `spender` to be approved. Used in approvals.",
          "params": {
            "spender": "Address that may be allowed to operate on tokens without being their owner."
          }
        }
      ],
      "OwnableInvalidOwner(address)": [
        {
          "details": "The owner is not a valid owner account. (eg. `address(0)`)"
        }
      ],
      "OwnableUnauthorizedAccount(address)": [
        {
          "details": "The caller account is not authorized to perform an operation."
        }
      ]
    },
    "events": {
      "Approval(address,address,uint256)": {
        "details": "Emitted when the allowance of a `spender` for an `owner` is set by a call to {approve}. `value` is the new allowance."
      },
      "Transfer(address,address,uint256)": {
        "details": "Emitted when `value` tokens are moved from one account (`from`) to another (`to`). Note that `value` may be zero."
      }
    },
    "kind": "dev",
    "methods": {
      "allowance(address,address)": {
        "details": "See {IERC20-allowance}."
      },
      "approve(address,uint256)": {
        "details": "See {IERC20-approve}. NOTE: If `value` is the maximum `uint256`, the allowance is not updated on `transferFrom`. This is semantically equivalent to an infinite approval. Requirements: - `spender` cannot be the zero address."
      },
      "balanceOf(address)": {
        "details": "See {IERC20-balanceOf}."
      },
      "decimals()": {
        "details": "Returns the number of decimals used to get its user representation. For example, if `decimals` equals `2`, a balance of `505` tokens should be displayed to a user as `5.05` (`505 / 10 ** 2`). Tokens usually opt for a value of 18, imitating the relationship between Ether and Wei. This is the default value returned by this function, unless it's overridden. NOTE: This information is only used for _display_ purposes: it in no way affects any of the arithmetic of the contract, including {IERC20-balanceOf} and {IERC20-transfer}."
      },
      "name()": {
        "details": "Returns the name of the token."
      },
      "owner()": {
        "details": "Returns the address of the current owner."
      },
      "renounceOwnership()": {
        "details": "Leaves the contract without owner. It will not be possible to call `onlyOwner` functions. Can only be called by the current owner. NOTE: Renouncing ownership will leave the contract without an owner, thereby disabling any functionality that is only available to the owner."
      },
      "symbol()": {
        "details": "Returns the symbol of the token, usually a shorter version of the name."
      },
      "totalSupply()": {
        "details": "See {IERC20-totalSupply}."
      },
      "transfer(address,uint256)": {
        "details": "See {IERC20-transfer}. Requirements: - `to` cannot be the zero address. - the caller must have a balance of at least `value`."
      },
      "transferFrom(address,address,uint256)": {
        "details": "See {IERC20-transferFrom}. Emits an {Approval} event indicating the updated allowance. This is not required by the EIP. See the note at the beginning of {ERC20}. NOTE: Does not update the allowance if the current allowance is the maximum `uint256`. Requirements: - `from` and `to` cannot be the zero address. - `from` must have a balance of at least `value`. - the caller must have allowance for ``from``'s tokens of at least `value`."
      },
      "transferOwnership(address)": {
        "details": "Transfers ownership of the contract to a new account (`newOwner`). Can only be called by the current owner."
      }
    },
    "version": 1
  },
  "userdoc": {
    "kind": "user",
    "methods": {},
    "version": 1
  }
}